:020000040000fa
:080000000001040000000000f3
:020000040000fa
:0400080014020000de
:020000040000fa
:04000c0014020000da
:020000040000fa
:0400100014020000d6
:020000040000fa
:0400140014020000d2
:020000040000fa
:0400180014020000ce
:020000040000fa
:04001c0014020000ca
:020000040000fa
:0400200014020000c6
:020000040000fa
:0400240014020000c2
:020000040000fa
:0400280014020000be
:020000040000fa
:04002c0014020000ba
:020000040000fa
:0400300014020000b6
:020000040000fa
:0400340014020000b2
:020000040000fa
:0400380014020000ae
:020000040000fa
:04003c0014020000aa
:020000040000fa
:0400400014020000a6
:020000040000fa
:0400440014020000a2
:020000040000fa
:04004800140200009e
:020000040000fa
:04004c00140200009a
:020000040000fa
:040050001402000096
:020000040000fa
:040054001402000092
:020000040000fa
:04005800140200008e
:020000040000fa
:04005c00140200008a
:020000040000fa
:040060001402000086
:020000040000fa
:040064001402000082
:020000040000fa
:04006800140200007e
:020000040000fa
:04006c00140200007a
:020000040000fa
:040070001402000076
:020000040000fa
:040074001402000072
:020000040000fa
:04007800140200006e
:020000040000fa
:04007c00140200006a
:020000040000fa
:040080001402000066
:020000040000fa
:040084001402000062
:020000040000fa
:04008800140200005e
:020000040000fa
:04008c00140200005a
:020000040000fa
:040090001402000056
:020000040000fa
:040094001402000052
:020000040000fa
:04009800140200004e
:020000040000fa
:04009c00140200004a
:020000040000fa
:0400a0001402000046
:020000040000fa
:0400a4001402000042
:020000040000fa
:0400a800140200003e
:020000040000fa
:0400ac00140200003a
:020000040000fa
:0400b0001402000036
:020000040000fa
:0400b4001402000032
:020000040000fa
:0400b800140200002e
:020000040000fa
:0400bc00140200002a
:020000040000fa
:0400c0001402000026
:020000040000fa
:0400c4001402000022
:020000040000fa
:0400c800140200001e
:020000040000fa
:0400cc00140200001a
:020000040000fa
:0400d0001402000016
:020000040000fa
:0400d4001402000012
:020000040000fa
:0400d800140200000e
:020000040000fa
:0400dc00140200000a
:020000040000fa
:0400e0001402000006
:020000040000fa
:0400e4001402000002
:020000040000fa
:0400e80014020000fe
:020000040000fa
:0400ec0014020000fa
:020000040000fa
:0400f00014020000f6
:020000040000fa
:0400f40014020000f2
:020000040000fa
:0400f80014020000ee
:020000040000fa
:0400fc0014020000ea
:020000040000fa
:0401000014020000e5
:020000040000fa
:0401040014020000e1
:020000040000fa
:0401080014020000dd
:020000040000fa
:04010c0014020000d9
:020000040000fa
:0401100014020000d5
:020000040000fa
:0401140014020000d1
:020000040000fa
:0401180014020000cd
:020000040000fa
:04011c0014020000c9
:020000040000fa
:0401200014020000c5
:020000040000fa
:0401240014020000c1
:020000040000fa
:0401280014020000bd
:020000040000fa
:04012c0014020000b9
:020000040000fa
:0401300014020000b5
:020000040000fa
:0401340014020000b1
:020000040000fa
:0401380014020000ad
:020000040000fa
:04013c0014020000a9
:020000040000fa
:0401400014020000a5
:020000040000fa
:0401440014020000a1
:020000040000fa
:04014800140200009d
:020000040000fa
:04014c001402000099
:020000040000fa
:040150001402000095
:020000040000fa
:040154001402000091
:020000040000fa
:04015800140200008d
:020000040000fa
:04015c001402000089
:020000040000fa
:040160001402000085
:020000040000fa
:040164001402000081
:020000040000fa
:04016800140200007d
:020000040000fa
:04016c001402000079
:020000040000fa
:040170001402000075
:020000040000fa
:040174001402000071
:020000040000fa
:04017800140200006d
:020000040000fa
:04017c001402000069
:020000040000fa
:040180001402000065
:020000040000fa
:040184001402000061
:020000040000fa
:04018800140200005d
:020000040000fa
:04018c001402000059
:020000040000fa
:040190001402000055
:020000040000fa
:040194001402000051
:020000040000fa
:04019800140200004d
:020000040000fa
:04019c001402000049
:020000040000fa
:0401a0001402000045
:020000040000fa
:0401a4001402000041
:020000040000fa
:0401a800140200003d
:020000040000fa
:0401ac001402000039
:020000040000fa
:0401b0001402000035
:020000040000fa
:0401b4001402000031
:020000040000fa
:0401b800140200002d
:020000040000fa
:0401bc001402000029
:020000040000fa
:0401c0001402000025
:020000040000fa
:0401c4001402000021
:020000040000fa
:0401c800140200001d
:020000040000fa
:0401cc001402000019
:020000040000fa
:0401d0001402000015
:020000040000fa
:0401d4001402000011
:020000040000fa
:0401d800140200000d
:020000040000fa
:0401dc001402000009
:020000040000fa
:0401e0001402000005
:020000040000fa
:0401e4001402000001
:020000040000fa
:0401e80014020000fd
:020000040000fa
:0401ec0014020000f9
:020000040000fa
:0401f00014020000f5
:020000040000fa
:0401f40014020000f1
:020000040000fa
:0401f80014020000ed
:020000040000fa
:0401fc0014020000e9
:020000040000fa
:10020000af9120000eff27000e01880000000000c3
:10021000000020000000e000020032000001200089
:100220002002880014000700f60007000000e0002c
:1002300003003a0000d22100010020000200370034
:100240000000200001002000810f7000010032003a
:1002500014000700000020000000e000020032004f
:1002600000000200000000008c1a020000000000e4
:100270000040da000000fe004440a900a014200065
:100280000000e00003003200002020009001880000
:100290004440a800000006008a1f78008b1f7800e9
:1002a00000000600a1028800800478000000eb0036
:1002b0001f003700e284440054a0b4009905ba003e
:1002c000e284440054a0b4009906ba00e2844400d9
:1002d00054a0b4000006eb00476fde00fd07b2003b
:1002e000ae018800636ce10003003a00eaff0700fa
:1002f0000000eb000e003700606ce10008003a00df
:10030000004deb000a05e800020039003420ec0043
:100310000af0a0008b05e900f9ff3e000400370059
:100320006168e100010032000086eb000b0007006d
:1003300019c7ba001905ba000e04e00003003a001c
:100340000a00e000dbff3a0000000600fe07b200f2
:10035000ae0288008a047800f5ff37000cd0a300b5
:10036000e20f4d001c00390089027800354dba00bb
:100370000a05e800020039003420ec000af0a00071
:100380008b05e9000f003200254dba000a05e80090
:10039000020039003420ec000af0a0008b05e900cf
:1003a000080032000c00e0000600320015cdba0053
:1003b0000a05e800020039003420ec000af0a00031
:1003c0008b05e9008984e80054a0b4000b00e0002c
:1003d000e2ff3a00000006009902ba00055d7800cd
:1003e0008b05e900f7ff3200c82ade00055d7800c2
:1003f0008b05e900f3ff32000c00e000f1ff320052
:1004000019ddba00eeff3700160a040000000000f4
:1004100000000400000000004e0a0400000000007c
:100420007a0a0400000000000040da000000fe002c
:100430000a00fa0011002000b1bf9f00c0bf9f005a
:100440006a805700be0907004fb897000080fa0085
:10045000000006000a00fa00e20f500034003e00df
:1004600090488000e10f500003003200e20f50007e
:1004700011003a000c003700833920000300e0002f
:1004800001003a000040da009803e2000200350063
:10049000a023ef0099e3a8009b43ab000d003a00b6
:1004a0009b43a8000b003700e33a20000300e00064
:1004b00001003a000040da00ae03e200020035001d
:1004c000b623ef00afe3a800b143ab0001003a0050
:1004d000b143a800820178000b0037003102fb0015
:1004e000e10f500004003a009b23ab00feff3a00ee
:1004f000e41c880003003700b123ab00feff3a0084
:10050000941d88008301e9000300e000f3ff3a0036
:10051000e10f500003003a009b03ab00feff3200e6
:100520000b003700b103ab00feff320008003700bc
:1005300033002000b3bf9f00c0bf9f00d1bf9f000a
:10054000e2bf9f006a8057007f0907006fb99700dc
:10055000020078000080fa00000006000a00fa009d
:1005600051002000b1bf9f00c0bf9f006a805700ac
:10057000770907005fb897000080fa0000000600c6
:10058000889fbe0080047800c04880000000e00022
:1005900004003a000e0007000084eb000000e000b9
:1005a00008003500c84880000900e000050032005e
:1005b00009004400060007000000e00001003d00c3
:1005c0000084eb00080078004f04be000000060025
:1005d000800078000100e00003003a0000002000e5
:1005e000c0488800000005000080eb0002002000e9
:1005f000828f500002003e00c14888000000eb00de
:1006000000000600000005000383680007002800c2
:1006100007036300470ade000480a100c71ade005a
:100620000580a100f70f20000720e1004200320002
:100630000728e10040003200889fbe008a9fbe006c
:100640008c1f7800f107b200f307b2000400e0004d
:10065000640032000170a0000500e0006800320074
:100660000370a00085054200eb07b1000204b8004a
:100670000302b8008484440060854a00020ab8007e
:10068000848444000a854a00030ab8000405450032
:10069000040033000804d0008984d2000a85d20007
:1006a0008b05e9006158e1003d0035000210200093
:1006b000090161000308200089816100f70720001b
:1006c0008783640008867300c84cde00c853dd00d1
:1006d000878474004855de000300e0000600320005
:1006e00082037600040032008904e80060054d00b2
:1006f0000a88a3000c003a00f70f20000758e10019
:1007000044003d000a70a100c75ddd000a85750048
:100710008a007300090078004f0678004f05be007c
:100720004f04be00000006000a05d1008984d300f2
:100730008b05e800f0ff3700881f7800060478007a
:10074000ba010700070278000001fd008101fd00e9
:10075000b601070087027800850372000778a300be
:10076000050032000001fd008101fd005b00070073
:100770004f04780000000600850372000748a300bc
:1007800003003200f0ff2f00f1ff2700f8ff3700d1
:100790000000200001f8270088807000f4ff370077
:1007a000880178004848dd00808171004848de00fb
:1007b000c850dd0001007000c850de00060478005b
:1007c0000b0178004e00070088807000d2ff3700d0
:1007d0000500e000050032001700200010000700af
:1007e0009dff370081037000f9ff3a008600780012
:1007f0004f0678004f05be004f04be000000050004
:1008000083037100f9ff3200270020000400070075
:1008100094ff370001f8270086807000f4ff37004e
:10082000889fbe000004eb006138e10016003a002a
:100830000100e00008003a00c800de004800dd00ca
:10084000880020000100e00003003a00c800de003c
:100850004800dd00680444008184cf00e98454002e
:10086000060034008908dd00f08314008703de00f1
:10087000878070000900dd00090444006102140053
:100880004f04be00000006000300e00008003a002c
:10089000c811de004811dd00880020000300e000e0
:1008a00003003a00c811de004811dd00680444006e
:1008b0008384cf00e9845400060034008919dd00e8
:1008c000f08314008713de00878171000911dd00b9
:1008d00009044400e1021400e9ff37000478a30092
:1008e000040032000578a300030032000168a30071
:1008f00001003a000200be000160a00000000600f6
:100900000100e00026003200610111007810e100d2
:1009100023003c006022b8007010e10004003500a4
:1009200080027800010078008000eb007001510027
:100930000200e0000900340070031100062add0007
:10094000822ade008603dd00878272000200de005c
:10095000860bdd00070070008208de0084817100d4
:10096000f4ff2700048262008481710004002800e3
:10097000848262006102600005f0a60000000600ab
:1009800004827100070032000000e800e0804800a7
:10099000000006000002be006000b800efff370054
:1009a0006000b800000006008c9fbe008a9fbe0059
:1009b000889fbe00ca0007000b056d008a057800fd
:1009c0000c40e10008003a000900e00082003a0013
:1009d0000af0a1000c047800f3012000f2ff2f00c0
:1009e0006110b9007c0037000c48e10004003a00b7
:1009f000870007000900e00077003a00f4ff3700a5
:100a00000800e000740032000900e00002003a0033
:100a10007f00070070003700ed3f20008d845400f8
:100a2000090444008a1f7800881f7800871f780017
:100a3000861f7800851f7800841f7800cb19dd00a1
:100a4000c515de008b8571004b11dd00450dde0004
:100a50000a057100cb08dd00c504de008984700042
:100a60004b04dd000440b8000546b8008c8040000f
:100a700060814e00044eb8008c8040000d0149009a
:100a80008001eb000318ad000456b8000c014100d2
:100a90008d8149000002eb000420ad000646b8003d
:100aa0000c0141008d81490060024a00054eb800ea
:100ab0000c0141008d81490060024a000556b800d2
:100ac0008c8141000d024a008002eb000528ad0038
:100ad0000746b8008c8141000d024a00e0824a00be
:100ae000064eb8008c8141000d024a00e0824a00a7
:100af0004f0678000c5eb8008c8141000d024a0060
:100b0000e0824a000656b8000c0242008d824a007c
:100b10000003eb000630ad00074eb8000c024200a7
:100b20008d824a0060034b004f0678000c5eb800cf
:100b30000c0242008d824a0060034b000756b80049
:100b40008c8242000d034b008003eb000738ad00a0
:100b50004f0678000c5eb8008c8242000d034b00fb
:100b6000e0834b004f0678000c5eb8000c03430096
:100b70008d834b004f0478004f0578000748a30091
:100b80000a003a000000400081804800020149004c
:100b90008381490004024a0085824a0006034b0013
:100ba00087834b000804e900f4ff37000306780050
:100bb0008080700082807000010032006106760043
:100bc000870178000601780085007800040078002d
:100bd00088047800780037008d0037008c064600c6
:100be00002003a000000a600000006006000480075
:100bf000e080480060014900e08149000350a60000
:100c0000000006008301d1000804e800000006008f
:100c10000002fd008102fd000203fd008303fd00d0
:100c20008804fd008a05fd00000006007048e10010
:100c30001a0039007d0320000d48e1000a00390048
:100c400081057000830671008c8575008d857500a7
:100c50000006eb000cd8e700610676006000b800e3
:100c60006011b800000006007048e1000b00390078
:100c70008c0578000006780001007800820078007a
:100c8000030178008001eb0003d8e70061067600dd
:100c9000f0845400f4ff3a00000006006160e100b7
:100ca0000c48ad00f08514008b06dd000966de00ff
:100cb0000d0676008b0edd000900de000d007000d1
:100cc0008b16dd008908de008d8070008b1edd0034
:100cd0000911de000d0171008919de000000060017
:100ce0000d002800fc7f20000d856100441cde0003
:100cf000ef8161000c046400010032000340a00099
:100d00008d856300c43cde00ef8363008c84640047
:100d1000010032000740a0000c40e10006003a004c
:100d2000ef86610082867600818676008086760076
:100d300001003200180037000c48e10007003a00bb
:100d4000ef86630086867600858676008486760048
:100d500002003200aeff07000f0037000348a30077
:100d600005003a0081067000828676008386760050
:100d7000010032000804e8000748a30005003a001b
:100d8000850672008686760087867600010032002e
:100d90008904e80000000600cf047800cf05780041
:100da0001b003700000278008102780002037800ff
:100db00083037800880478000cf0a70087ff070001
:100dc000fd7f20000d40e100040035000d04780097
:100dd0006000b8006011b8000d0037000800e000a6
:100de0000b003c00040078008500780006017800c4
:100df00087017800e18414008cff07000cf0a70045
:100e000076ff07000004eb000340a7000804e80099
:100e10004444dd006fc56100880175004f04be00c9
:100e20004f05be004f06be00000006002700200050
:100e300001f0a70017002000470bde00f60fb200fc
:100e4000040032000643e8000a0032004702b30003
:100e50000000060001037800f607b20006037000e8
:100e600002003a000703b300000006008702b30047
:100e70000000060001037800f607b20006037000c8
:100e8000020032000770a000000006000760a0000a
:100e900000000600218720006b000700800078001a
:100ea0000080eb000100e0000400350021872000f5
:100eb000a0002000020007004f80de0000000600b6
:100ec000889fbe008a1f78000004be00c900900001
:100ed00069009000808f50000600390009007800fa
:100ee000b8000700800078000080eb000100e000ff
:100ef0001700350008457800490090000858780030
:100f0000c00498001900780000b8a30004003a005b
:100f100000a8a30008003200ea4f540006003a007f
:100f2000090078000d000700800078000080eb00c9
:100f30000100e00006003a0000c020001900600037
:100f40000200320049009000e00498000a80fb0093
:100f50004f0578004f04be0000000600889fbe00c9
:100f60008a1f7800000478000800e0000d003a00b5
:100f7000088c2000700544008004eb0058007800c5
:100f80000000e00004003200f4ff07000000e00071
:100f900001003d008084eb008a0f5400f7ff3a0007
:100fa0002500370000002200180060008004eb00dc
:100fb00021003200a80490000f0037000901510001
:100fc000384090000000fb008900780021fd0700f8
:100fd0000000e00007003c0028009000400498005a
:100fe00060049800500c98001890a0008084eb00da
:100ff000110037008084440048019000828f540023
:10100000eeff390028009000400498009800780016
:1010100002c020000281600001003a003800900008
:1010200001e8a300020032006004980001003700cc
:10103000500c98008004eb00090078004f05780000
:101040004f04be0000000600889fbe008a9fbe00bd
:1010500080047800010478002c003700c80090005c
:1010600068009000808f500004003900080078006c
:10107000540007000000e000370035000040200069
:101080001800600009003200a1002000090078006b
:1010900042000700800578000b00e00003003200ea
:1010a000618514000a8545000400370009007800b6
:1010b00034000700000578008005eb004800900030
:1010c000e8009000808050008a8f500002003100bc
:1010d000010578008005eb000a017800890078009e
:1010e00021000700480090000a00400040049800da
:1010f0000b00e000040032000800780097ff0700b2
:101100000000e00014003a008a8444001904e00062
:10111000d2ff3a0000802000180060000600320074
:10112000080078008dff0700800078000080eb0049
:101130000100e00009003a0001c020009880600032
:101140000000eb00050032004800900060049800a9
:101150000000eb00010037000080eb004f05be00ef
:101160004f04be0000000600800178000200370036
:10117000b15978000201e9000200e000fcff3a00ea
:101180000000060080007800010178003104e000d2
:10119000fdff3a0000005100000006000001eb00d6
:1011a00000027800b041780081cf510001003a0080
:1011b000040178000304e000f9ff3a00020078001f
:1011c00000000600889fbe008a1f78000004780097
:1011d000c8009000680190000000eb00828f500072
:1011e0003c0039001800780022002900020160004c
:1011f000e20f510007003200012020000000e00053
:101200000100350001202400008c70000080eb00fc
:10121000300037000200260002006000820f5000fc
:1012200009003a0038009000808f50000600390015
:101230000800780049ff0700800078000080eb007c
:101240000100e00023003a001805780000c02000eb
:101250000000650018003a00a80490006002200019
:1012600008004000808f540013003a000020200046
:1012700072030700200498000000e00005003a0017
:1012800029049800490498008904e800390498006a
:10129000080037000a60a0000a0c7800400498009b
:1012a000012020008080400031049800400c98000c
:1012b000500c98000c000700280090005004980083
:1012c000380090006004980000002600180c7000a0
:1012d0000000eb004f0578004f04be000000060040
:1012e00060a1200061003700881f7800489120002d
:1012f0001804e00003003a00f9ff070020c0b30023
:10130000004c78004f04780000000600889fbe0063
:10131000000478000800780010ff070080047800bf
:101320000004200018006000020032002800900035
:10133000890207000000eb0020049800384090006c
:101340000004e000050035000000fb0038fc070049
:101350000000e000010032008084eb0018109000d3
:101360000000e000080032007cfc07000000e00004
:10137000010032008084eb00181090007602070014
:101380000000eb0010149800000820001800600016
:10139000150032000001eb006000b800238c200033
:1013a0000202d00063027a00880f520005003a0062
:1013b0000000400081804800008041000008eb00f0
:1013c0000600370061004000e08048000201e800ac
:1013d000e80f5000e08f5800f0ff3a000800780056
:1013e0005d0207000e003700000c780000c0eb0023
:1013f000304498006002200008004000200498005b
:101400004004980050049800400c98006004980034
:10141000500c98007004980076004400000c98006e
:10142000090078004f04be0000000600881f780005
:101430000004eb006140b800e2ff2f00f3ff2f0033
:1014400018060700028d2000620078000000e0000e
:1014500001003200adff07000804e800e80f540067
:10146000f4ff3a004f04780000000600010020005d
:101470000100e00008003200010080000100e000ef
:10148000050032008100e900010088008100d000e1
:101490000200800000b1780000000600889fbe00b6
:1014a0000004780001007800820478008801780048
:1014b000090178001100200059020700890f50002f
:1014c000010032000004eb00080078004f04be0069
:1014d000000006000000fa00e88157004fb99700ad
:1014e00021872000e0a42000cc0007000080fa0043
:1014f00000000600889fbe00000478000203be00c2
:101500008104780008027800890178001200200028
:101510000600be001e050700890f500001003200c2
:101520000004eb00080078004f04be000000060035
:101530006800fa00889fbe008a9fbe008004780081
:1015400001047800820578000305780084007800a3
:1015500000f92f000f0040000b050700d98f9f00f6
:10156000fb8f9f000000eb00a09f9f00e88f9f0073
:101570009a84fb000904fb008904ea00cf4cde00da
:1015800050022000800f54000d003200e18f540003
:101590000b003a00090178008a0078007f889700e4
:1015a000df89970003000100f08f9f000000e0003a
:1015b000950032002f9897000000e800a09f9f0040
:1015c0000905450050022000800f5400040032003d
:1015d0000800e000e6ff3a002f9897008b003700e4
:1015e0000000eb00809f9f00f0979f00e0979f0016
:1015f000d0979f00c0979f00b0979f0007003700cb
:10160000819020000100500000004000c18f2000a8
:1016100061007800cf98970001007000c09f9f0084
:101620000a04780008057800ba4478008900fb00b5
:1016300080902000b50207000000e000f0ff3a00b3
:10164000a1c2b30081cf54000e003a008f889700ea
:101650000180e900808f9f0010007800b09f9f00fc
:101660000000e00005003d000000ea00b09f9f0080
:101670004f9897000020a000c09f9f000804e8003a
:1016800010003700b09f9f00880078000000eb003a
:1016900005003700f3ff2700830f500002003200df
:1016a0006a02b90004004100010478008800780053
:1016b0003101fb000203b100e90f5100f5ff3600d4
:1016c000b09f9f00e0c2b300984f100002003200ac
:1016d0000080eb0019003700a0c2b300d84f100003
:1016e00007003a008f8897000180e900808f9f00f3
:1016f00010007800909f9f000804e8001000370059
:101700000000eb00909f9f008800780005003700e4
:10171000f3ff2700830f5000020032006a02b90075
:101720000400410001047800880078003101fb00ca
:101730000203b100e90f5100f5ff3600909f9f00b2
:10174000984478008900fb00408f20006f0207005a
:101750000000e000020032000804e8000100370049
:101760008044eb00a97f9f0080c6b30080cf540067
:1017700006003a0098cf140010003a00664050006e
:10178000a07f9f000804e8000c003700c0c6b3002b
:1017900080cf540009003a0098cf140007003a00a7
:1017a00067404000d84f100002003a006e405000e1
:1017b0000100370010c7b300a07f9f001801fb0095
:1017c000c3fb2f008f81410001f92f008f80400063
:1017d00020f92f000f004000150007000000e00076
:1017e00009003a00c1fb2f008f80400020f92f0034
:1017f0000f0040008a0307000000e00002003500ef
:101800000805e8005aff37000080eb004f05be00d6
:101810004f04be000080fa000000060003027800ba
:101820008201780001017800a1a7200040ff370065
:10183000889fbe008a1f78000004780001007800ad
:1018400082407800e2c6b30082cf5000c000320070
:1018500015003c006b41510082cf50002400320043
:101860000a003c007041510082cf5000f900320064
:101870006541410082cf50006800320050c2b30081
:1018800080cf500028013a002401370042c6b3003f
:1018900082cf50001b0032006541410082cf5000d2
:1018a00021013a001700370032c7b30082cf500041
:1018b000e800320007003c006441510082cf500034
:1018c000560032000241e80082cf500016013a0073
:1018d000d200370052c7b30082cf50004f00320011
:1018e0006341410082cf50000f013a004b003700a6
:1018f0009080e90001087800280890009140780065
:101900000701370008699000c4c6b300844f510036
:1019100007003a00100278006401520002087800c3
:101920001202be004fabde008603780011003700c4
:1019300014c7b300844f510003003200a4c6b300a3
:10194000844f510006003a001002780068015200ee
:10195000020878003202be002203be0005003700f4
:101960001081e9000208780012027800cfa2de00a0
:10197000612bb900049cbe000694be00086890006c
:1019800082c6b300824f50000d00320022c6b30061
:10199000824f500004003a000402fb00cfa2de0098
:1019a000612bb9000800370042c7b300824f5000d6
:1019b0000300320066414100824f500004003a00ab
:1019c000cfa2de00612bb900049cbe000694be00cd
:1019d0003802be002803be0028089000d2c2b3001f
:1019e000e00f5200e08f5a00e00f5b00e08f5b00d9
:1019f00008003500381190000218a30002003200e0
:101a0000b2c2b300030037000208a3004c0032004a
:101a100002c2b30082717800470037000869900065
:101a2000c4c6b300844f510006003a00100278008b
:101a300064015200020878001202be006033b80050
:101a40001100370014c7b300844f51000300320067
:101a5000a4c6b300844f510006003a00100278007b
:101a600068015200020878003202be002203be0064
:101a7000050037001081e9000208780012027800a2
:101a80008002eb006033b800049cbe000694be00e8
:101a90000868900082c6b300824f50000d003200eb
:101aa00022c6b300824f500004003a000482fb00bb
:101ab0008002eb006033b8000800370042c7b30073
:101ac000824f50000300320066414100824f5000b7
:101ad00004003a008002eb006033b800049cbe00b2
:101ae0000694be00381090000038a30014003200a5
:101af0003802be002803be00e00f5200e08f5a00fb
:101b0000e00f5b00e08f5b000d00320080c7b30088
:101b100080cf50000300320080c5b30080cf50005a
:101b200007003a002808900002c3b30082717800d1
:101b30000000e800817178000000e800200c9800a7
:101b40002808900080814100730498003e0037000f
:101b500008699000c3c6b3009080e900834f51002c
:101b6000220032000a003c00e4c15100834f5100c2
:101b70002500320083c1e800834f5100130032007a
:101b8000e8c15100834f51001e003a000a0037009f
:101b900043c7b300834f51001b003200e6c1410030
:101ba000834f510018003200e9c15100834f5100aa
:101bb00014003a0005003700010878001100780091
:101bc00028649000084878005f003700010878001a
:101bd0001100780018129000cfa2de00612bb9002e
:101be0000498be000690be00570037000108780038
:101bf0001100780018119000cf91de000288be001d
:101c0000510037009080e900010878001100780049
:101c100018149000080878004b0037009080e90005
:101c20000108780011027800cfa2de00612bb90014
:101c3000049cbe000694be002808900080814100ec
:101c40007304980081c7b3000800780045010700bd
:101c50003d0037000869900051c6b300814f510024
:101c60001a003a0010017800e400510001087800e1
:101c70001100be00000c9800110c98008811900013
:101c80000300e00007003d008081eb000001eb0055
:101c9000da0307000001be008808900081005100af
:101ca000080037000001eb00d4030700008170003a
:101cb0000300320008099000820050000100370044
:101cc00088109000410c98001f0037009080e900b8
:101cd00001087800110578007a04980088149000b3
:101ce0000900e00004003d000a00780025fd07001f
:101cf0008004780007003700090178008000eb00bd
:101d00000a007800f70007000000e0000100320040
:101d10008a045000490c98000b00370028089000f6
:101d2000817178000600370028089000808141000a
:101d30000104e00001003a0051c2b300814978007b
:101d40000000e800200c98000000eb004f05780030
:101d50004f04be00000006000000e0002f0032002b
:101d6000c0017800e38f51002c0036000308a30067
:101d70002a003a00814880000100e00002003200a1
:101d8000810f500004003100110098008048880045
:101d90001600370082007800110190000200e00078
:101da00002003200800f5100faff39001102780062
:101db00084824000850f500018003900808f520047
:101dc00003003a0083084200010078000700370052
:101dd0000200e0000300320083014000830f510045
:101de0000e003900120098009000980090009000ba
:101df0000100e0000900320010014000828f500015
:101e000006003a00e29020000009eb001001780083
:101e10001108410091009000110098000000060098
:101e2000889fbe008a9fbe008c9fbe008e1f7800d8
:101e3000000678000104780002007800830478002e
:101e40000881b900020778000200e0004200320079
:101e50000800e0004100320082057800c9009000cf
:101e600069009000808f500004003900090078005c
:101e7000d4fc07000000e0002900350000402000ed
:101e8000190060000a0032000b017800a100200058
:101e90000c00780093000700800678000d00e00039
:101ea00006003200610516000a854600040037006e
:101eb0000b0578008006eb00010037000b05780069
:101ec00049009000e9009000808050008a8f500007
:101ed00002003100010578008006eb000a0178005d
:101ee0008c007800a0fc07008a855500490090000e
:101ef0000a004000c00498000d00e0000400320019
:101f00000900780015fc07000000e00004003a001a
:101f10000b00e000020032000a064600cfff370047
:101f200000802000190060000200320009007800e3
:101f30000afc070000c02000190060000200320007
:101f400049009000e00498008b055700110009003b
:101f50008885d800010037000000eb004f077800ab
:101f60004f06be004f05be004f04be000000060035
:101f7000889fbe0000047800714880000100e000e6
:101f800002003200010078000d0037008148800017
:101f90000091200004003700910f54002500360006
:101fa0000180e800910090000100e000faff3a0093
:101fb00010003700920f54001e0036000280e80027
:101fc000100178000200e000faff3a0011017800e9
:101fd000814880000091200004003700910f5400d8
:101fe000140036000180e80091009000828f5000bc
:101ff000faff3a00b9488000888f54000100310090
:1020000088047800090078004c0007000000e00018
:1020100004003a00888f5400050032008904d10082
:10202000f5ff3700091878004bff0700d2ff370093
:102030000000eb004f04be0000000600881f78007f
:10204000630440000800a1008000eb00800f5400f2
:1020500021003600e30f540001003e00480020003c
:1020600008007800c2ff07008000eb000000e000dd
:1020700019003200900078009101780064815100cd
:10208000880f510003003100110190000208780010
:102090000700370008814000020878009101900095
:1020a00013019800100178001109140088087800c5
:1020b000100178000000eb000200e0000400320094
:1020c000920190000300e000010032000280e8006d
:1020d000704888008180e800010078004f04780093
:1020e0000000060003003700b0cf100005003200ea
:1020f0000201e900800178000200e000faff3a00e6
:102100000000050003007800000006000200370010
:102110000304e000060032000001780002007800ad
:10212000b041780081cf5100f9ff3a00010037003b
:102130000001eb000200780000000600800078003b
:102140000000eb000100e000050034000100780011
:102150000bf90700e10f400001003a000000eb001e
:1021600000000600fc874700889fbe008a9fbe00d3
:102170008c9fbe008e1f78000006780080c5b300db
:1021800080cf50000a0032007740400080cf5000de
:102190000a0032006940400080cf50000b0032003e
:1021a000308e200080bf9f00ae0020000a00370064
:1021b000228d200082bf9f0006003700338e200052
:1021c00083bf9f008e00200003003700348e200064
:1021d00084bf9f000e0120003c02be002c03be0005
:1021e0000605be000404be0040c6b30080cf500008
:1021f000030032006540400080cf50000b003a00e1
:10220000e00f5200e08f5a00e00f5b00e08f5b00b0
:1022100006003d006000b8006011b80004045000e2
:10222000858458000605590087855900e80f570036
:102230000400320040002000f00f570038003a0040
:102240000100370030002000e00f5400e08f5c00f8
:10225000e00f5d00e08f5d0004003a008c109000fc
:102260008d0120000100e000060032008e00e90030
:10227000888060008fba9700e5c07800f1ef9f007a
:102280007d012000800078008100e9000500330016
:102290008b05d1000a85d3008984d3000884d3003c
:1022a000f9ff3700089ebe000a96be0012003700f4
:1022b0008d06e9008e00e900848060000fb9970068
:1022c000e2c1780082fd2f000f01410003f17e0082
:1022d000800078008100e900050033008783d10089
:1022e0000683d3008582d3000482d300f9ff370030
:1022f000049ebe000696be003c02be002c03be003b
:10230000e00f5200e08f5a00e00f5b00e08f5b00af
:102310008b0034000d00e000e5ff3c008800370032
:102320000c68900081c6b300814f50000b00320052
:1023300006003c000004e00008003200e6c0500047
:10234000814f50004e003a0004003700c1c6b30070
:10235000814f50004a003a00210037000800e00099
:1023600004003a000c1090008d0120000000e000f5
:1023700006003200110009000e84d8000fb9970042
:10238000e2c07800f1ef9f007d01200011000900fc
:102390000e84d8000a003700110009000e04d8008e
:1023a0008d06e9000e81b900020454008fb8970031
:1023b00061417c0081fd2f008f80400082f07e0013
:1023c000000478000800e000020032000d00e00088
:1023d000f1ff3c00cfc4de00614db900250037009d
:1023e000e00f5400e08f5c0004003a000c109000f5
:1023f0008d0120000000e000070032006171b9008b
:102400000800be009c0307008fb99700e3417800e5
:10241000f3ef9f007d0120006171b9000800be004c
:10242000280307000b0037006171b9000800be00e7
:102430000d0207008d06e90000f1b9000204540006
:102440000fba9700e4427c0084fd2f000f02420087
:1024500005f27e000004be00e00f5000e08f58003f
:10246000020032000d00e000efff3c004fcdde0027
:102470008a057800089ebe000a96be00300037002c
:10248000e00f5400e08f5c00e00f5d00e08f5d0026
:1024900004003a000c1090008d0120000000e000c4
:1024a000090032006172b900612bb9000800be005a
:1024b0000a01be00a10207000fba9700644278002b
:1024c000f4ef9f007d0120006172b900612bb9001b
:1024d0000800be000a01be00910207000d0037008f
:1024e0006172b900612bb9000800be000a01be008c
:1024f000960207008d06e90000f2b90004045400ba
:102500008fba970065427c0085fd2f008f824200c4
:1025100084f27e00009ebe000296be003c04be0017
:102520002c05be00e00f5400e08f5c00e00f5d0062
:10253000e08f5d00020034000d00e000e8ff3c0089
:10254000e80f570010003a003c1090000038a3003c
:102550000d003200f78f560006003e0085fd2f006b
:102560008f824200e5c07e0000c3b30080cf5000e0
:10257000050032008d06e90002c3b30081fd2f0083
:102580008f80400082f07e0078811600420e980015
:102590007c00900083fd2f008f8141008d804100e1
:1025a000f1fa07004c0890008c109000810f500049
:1025b00006003d0000805000300e98003c10900056
:1025c0000040a100301698000f0037000100e00025
:1025d0000d003d00bc109000f4806000f08f5000b2
:1025e00009003a002c119000ac08900081005100c5
:1025f0003c09900082805000008050004240a900b9
:1026000001003400300e98004f0778004f06be00de
:102610004f05be004f04be00cf01b1000000060010
:102620000400fa00889fbe008a9fbe008c1f7800bd
:102630000004780001067800a81490002808900093
:10264000808454003808900080845400480890002a
:1026500080845400580890008084540068089000da
:102660008084540078089000808454000002220086
:1026700090bf9f0000032300a0bf9f003810900070
:102680000028a30015003a000900e0001300340000
:10269000090578008a057800e20f55000100360030
:1026a0002b002000c80190000b017800ee8057003d
:1026b0006800900003000100600498000000e00042
:1026c000aa003200181090000b004000101498006f
:1026d0000b0555004240a900eeff3c002809900080
:1026e0000200e0000c003400c80190008c0078006b
:1026f0006800900003000100600498008080eb00f7
:102700000000e0009a003200981090002808900025
:102710000080400010149800380d90000a00e0007e
:10272000110034008a057800e20f550001003600e0
:102730002b002000c80190000b017800ec805700ae
:102740006800900003000100600498000000e000b1
:1027500086003200181090000b0040001014980002
:102760000b055500edff370008699000c808900080
:1027700050c6b300804f510008003a000100e0004d
:102780001500340058029000080990009809900044
:102790006800900004000100070037000100e0001d
:1027a0000d003400c801900001017800f80090008d
:1027b0006800900003000100600498008080eb0036
:1027c0000000e0006a003200981090004808900075
:1027d0000080400010149800580d90000a00e0009e
:1027e000110034008a057800e20f55000100360020
:1027f0002b002000c80190000b017800ec805700ee
:102800006800900003000100600498000000e000f0
:1028100056003200181090000b0040001014980071
:102820000b055500edff370008699000680890001f
:1028300051c6b300814f51000d003a000000e00086
:102840001c00340078019000c8089000010141008c
:102850006111b800828fd2008381d20058029000ab
:102860008000780068009000040001000900370033
:102870000000e0000f00340078019000c8089000cc
:1028800081004100c80190000001780068009000bc
:1028900003000100600498008080eb000000e0006d
:1028a00033003200981090006808900000804000cb
:1028b00010149800780d90000a00e0001100340018
:1028c0008a057800e20f5500010036002b00200039
:1028d000c80190000b017800ec8057006800900060
:1028e00003000100600498000000e0001f003200b7
:1028f000181090000b004000101498000b055500b4
:10290000edff3700381090008000eb000028a30096
:10291000170032000900e0001500340009057800b6
:10292000e28f5400010036002a002000c801900008
:102930000a017800ee805700680090000300010053
:10294000600498000000e0000800320018109000b9
:102950000a004000101498008a8454004240a900e4
:10296000eeff3c008000eb00010037008080eb00b0
:10297000010078004f0678004f05be004f04be00ee
:102980000080fa0000000600010878000000060040
:10299000e6874700889fbe008a9fbe008c9fbe00ce
:1029a0008e1f780082bf9f0004047800029ab9004d
:1029b000f4b79f000400e000590032000fb99700ff
:1029c0000200e000570032000006be000407780055
:1029d000c800900068009000808f5000040039000b
:1029e00008007800f7f907000000e0003b00350020
:1029f00000402000180060000a0032008e017800bc
:102a0000a20020000c00be007c0007000005be00f4
:102a100000807500070032008c0455008904e8002e
:102a2000050037008e0478000a0020000b0020000b
:102a3000010037008e047800480190006800900083
:102a400002005000890f500003003100800478001c
:102a50000a0020000b0020006111b800828fd20014
:102a60008381d200090278000c00be003a00070002
:102a700009075700480090000900400040049800f2
:102a80000a857500040032000800780033f9070059
:102a90000000e00011003a000e00e0000f003200dc
:102aa0006148b800808fd2008180d2000000780099
:102ab00000f0a1008c01d0000001d000028641008e
:102ac0004220a80081864e004200a9004220ae00ac
:102ad0004200a8000c86d300bdff37000080200014
:102ae0001800600002003200080078001bf907009f
:102af00000c020001800600002003200c8019000f1
:102b0000630498007fb097000e0750000fb997003c
:102b1000110009000287d800800178000100370009
:102b20008001eb00030078004f0778004f06be00dd
:102b30004f05be004f04be006f00b100000006004c
:102b400000c0da000000060000c0da000000060045
:102b500000c0da00000006003400f8003200f8007f
:102b60000203be00820270008502720002f0a6001d
:102b70008301e800a301880000f0a6008100e800be
:102b8000910188001500b2000c0032001049780055
:102b90000402e90015003200610141000200390021
:102ba0003420ec000200280061004000f7ff3900eb
:102bb0003220ec0000002800f4ff370010097800f4
:102bc0000482e9000900320062014100020039007c
:102bd0003420ec000200280062004000f7ff3900ba
:102be0003220ec0000002800f4ff37003200f9002a
:102bf0003400f9000601be00000006000300e000fa
:102c00000700320095018000910188001042780091
:102c1000950188000402fb00820f5200110032006f
:102c20008301e9009501800091018800104278003d
:102c3000950188000404e0000800320000027800da
:102c40001000b00000026a004260af0000f0a00077
:102c50000482d2000180b000e8ff370000002000ad
:102c60000100200000000600839f68000100e000d2
:102c700002003d0060001000e08018000300e0004a
:102c800002003d0060011100e08119000d01070004
:102c90004f00e00002003b0060001000e0801800e0
:102ca00000000600020ab900001bb9000200b800cb
:102cb000810042008100430000000600889fbe00a2
:102cc0008a9fbe0030044200b0844a0030054b00a9
:102cd00090854b006000b1000898be000a90be00cd
:102ce0000440e10005c8e10006d0e10007d8e1009a
:102cf00002003100680040001008e8004f05be00e7
:102d00004f04be0000000600889fbe008a9fbe00e0
:102d10003004be002005be000418540005985c0075
:102d200006185d0007985d00110020000440e100d6
:102d300005c8e10006d0e10007d8e1000100390034
:102d40008000eb00108810004f05be004f04be004d
:102d5000000006001200fa00889fbe008a9fbe0095
:102d60008c9fbe00e0b79f00f1b79f0082bf9f001d
:102d700093bf9f000605be000404be000000eb00e8
:102d8000d0b79f00c0b79f00b0b79f00a0b79f000b
:102d900090b79f00000678005fb19700cfb0970012
:102da000820141003fb097000200e00004003d00b6
:102db000370007007e805700c0ff07000300370080
:102dc000330007007e805700cfff0700dfb6970073
:102dd0000d00e0000c0035006fb29700ffb29700c5
:102de0000fbb97009fbb9700100020000100200040
:102df0006011b80000027200818272000203730049
:102e0000838373001b0007000c06e8000104200008
:102e1000810f5600e0ff3a000d00e00004003d0085
:102e20000802be000a03be007e805700a3ff070011
:102e30005fa897000000e00005003a001fb297006d
:102e4000afb297003fb39700cfb3970009000700d8
:102e50006fb09700ffb097000fb997009fb9970028
:102e60004f06be004f05be004f04be000080fa00b2
:102e7000000006000100070000000600a4b79f0044
:102e8000b5b79f00c6b79f00d7b79f0000000600e8
:102e90004f09de0082817100b3b79f004f01de0051
:102ea0008180400082807000a1b79f008fb09700a2
:102eb0004f09de00000040000200700090b79f0044
:102ec0007fa897004f01de00818040008280700063
:102ed00081b79f000d0007004f3ade000000400060
:102ee00004007000f0af9f000800070004024200d9
:102ef00085824a0006034b0087834b00dfff0700f3
:102f00000802be000a03be00000006002fb29700b0
:102f1000bfb297004fb39700dfb3970000000600e1
:102f2000881f780018002000881f780089ff07009c
:102f30008f87e9004f04780000000600801feb0037
:102f400084ff07008f87e90000000600889fbe000d
:102f50008a9fbe00e00f5000e08f5800e00f59003c
:102f6000e08f59000c003d006044b8006055b80087
:102f70000000540081805c0002015d0083815d00df
:102f8000180020001500070008003d001800070089
:102f90000004eb00050037000004eb000f00070001
:102fa00002003d001200070018002000dcff0700af
:102fb0000800e000060032006022b8006033b8006c
:102fc0000000520081805a0002015b0083815b0097
:102fd0004f05be004f04be0000000600e00f520087
:102fe000e08f5a00e00f5b00e08f5b0000000600fe
:102ff0006044b8006055b8000402540085825c004b
:1030000006035d0087835d0000000600889fbe0008
:103010008a9fbe008c1f7800e00f5000e08f5800a0
:10302000e00f5900e08f59000d003d006044b800ea
:103030006055b8000000540081805c0002015d0012
:1030400083815d001c0020000820e10009a8e10048
:103050000ab0e1000bb8e1000d003d0008003700a8
:103060000006eb00e00f5200e08f5a00e00f5b001b
:10307000e08f5b0006003d006044b8006055b8007a
:103080000402540085825c0006035d0087835d00b6
:10309000aaff07000c00e000060032006022b80022
:1030a0006033b8000000520081805a0002015b00ca
:1030b00083815b004f0678004f05be004f04be00c1
:1030c00000000600020250008382580061003900af
:1030d00003037100620032000503720059003200e0
:1030e0000300e0005500330017003a000100e00043
:1030f0004b0032000208e100060031001100090017
:103100004288d800010178008001eb008000eb00cc
:10311000000006006110e100550032000002be0010
:10312000110009008280d800800278000400780035
:10313000110009004288d800010178008001eb00ed
:103140008500780000000600889fbe008a9fbe00b0
:103150008c9fbe000386cf000c06e9008c1f780010
:103160008c19dd00f00216000512de00848171006a
:103170000c11dd000003be008004eb00053cde0006
:103180008c3bdd000532de00848373000c33dd00f0
:103190000700780088007800110009004388d800f3
:1031a0000202b8000306b8008c82420060854e001f
:1031b0008005eb000402530085825b000a055c0079
:1031c0008b855c000b0033008000eb004f0678001d
:1031d0000c21de00700516000a2ddd000a017100c9
:1031e0008c29de004f06be004f05be004f04be0016
:1031f000000006000202420083824a0060054d0082
:10320000e0854d000000e9000b00e000eeff3d000e
:103210000202420083824a000000e900eaff370010
:103220000000e00012003200110009000280d80006
:10323000010178008000eb00000006000401be00e0
:10324000010037006011b800100020008000eb0082
:10325000000006000001be006000b800000006008b
:103260000001be00f0ff2f00f1ff2f00000006005c
:103270006011b8000000060092ff07000200be00c7
:043280000000060044
:020000040000fa
:1032840063700000752d0000617200006974000015
:10329400682d0000626500006e630000686d000028
:1032a400617200006b000000303000002e3000001e
:1032b400310000005365000070200000313200002e
:1032c40020320000303200003000000031370000ae
:1032d4003a300000353a0000343600000043000064
:1032e4006f6e00006669000067750000726100007f
:1032f400746900006f6e00003a200000504900001d
:1033040043320000344600004a31000030320000ed
:1033140034470000413600003036000020420000ef
:103324006173000069630000204800006f6f0000b3
:103334006b750000702000006f6e000020610000bb
:10334400204200007265000061640000626f0000aa
:10335400617200006420000040200000382000005a
:103364004d490000507300000d000000737500000b
:103374006d380000282900003a20000020250000b4
:103384006420000063790000636c00006573000032
:103394000d0a000000730000756d00003332000058
:1033a400282900003a200000256400002063000062
:1033b400796300006c650000730d00000a000000d2
:1033c4006d7500006c380000282900003a200000c8
:1033d400202500006420000063790000636c000075
:1033e400657300000d0a0000006d0000756c00009c
:1033f40033320000282900003a2000002564000030
:1034040020630000796300006c650000730d000008
:103414000a000000666c00006f6100007433000055
:10342400326d0000756c00003a2000002564000035
:1034340020630000796300006c650000730d0000d8
:103444000a000000666c00006f6100007436000022
:10345400346d0000756c00003a2000002564000003
:1034640020630000796300006c650000730d0000a8
:103474000a0d00000a000000436f00006f6c00009a
:103484002d4d0000435500002e6300006f6d0000b9
:103494000d000000507200006f6a000065630000b8
:1034a400743a000020250000730d00000a0000009b
:1034b4005665000072730000696f00006e3a0000e8
:1034c40020250000730d00000a0000004275000072
:1034d400696c0000642000006461000074650000f1
:1034e4003a200000257300000d0a0000004200008d
:1034f400756900006c64000020740000696d0000b0
:10350400653a000020250000730d00000a0d00003c
:043514000a000000a9
:020000040000fa
:103518000200fa00889fbe008a9fbe00a70007002d
:103528000000eb00000f78007a00370020c0b300dd
:1035380000e8b70030c0b30001e8b700fe0007009c
:1035480000000000118020009140780000c8bf00f2
:103558000601070002e8b70000000000fc000700b1
:103568006a005000f0418800f300070000000000e6
:10357800118020009140780000c8bf000e010700ac
:103588002040880000000000f10007006a00500099
:1035980010428800400020000100200030408800d0
:1035a8004140880050002000010020005040880061
:1035b80061408800e00007000000000050408000e3
:1035c8006140800034408000454080000001be001a
:1035d8000400be00ed0007007040880081408800ac
:1035e80000000000da0007006a005000004288006e
:1035f800d1000700000000005040800061408000ba
:1036080034408000454080000001be000400be0038
:10361800f300070024812000009abe000292be0039
:1036280000000000ca0007006a005000204288001d
:1036380000002000010c2400d0408800e1408800f0
:1036480000002000410e2c00f04088000141880055
:10365800b900070000000000d4408000e540800069
:10366800f0408000014180000001be000400be005f
:10367800e3f30700104188002141880000000000a2
:10368800b30007006a0050003042880064822000be
:10369800303323003133230032332300b3012400b5
:1036a800009abe000292be00e48220006000b800ca
:1036b80002002800c3012c00009abe000292be003e
:1036c8009d00070000000000608220003004be005a
:1036d8002005be00e08220005001be004000be0070
:1036e8000203be000002be000800be000a01be00c0
:1036f800abf4070064832000009abe000292be006b
:1037080000000000920007006a0050004042880054
:103718001e0fe8001e007800e10f500083ff340000
:1037280010972900d9f50700f0418000801f780024
:10373800809b2900801f780064f70700e487570002
:1037480000428000801f7800d09c2900801f7800ec
:103758005ef70700e487570010428000801f78005a
:10376800209e2900801f780058f70700e48757003b
:1037780020428000801f7800709f2900801f7800f9
:1037880052f70700e487570030428000801f780016
:10379800c0a02900801f78004cf70700e487570075
:1037a80040428000801f780040a22900801f7800d6
:1037b80046f70700e4875700ffff37000000fa00cc
:1037c8001f0007002600070045000700e0a32900a6
:1037d800aef5070020942900801f7800c0a42900b6
:1037e800801f780039f70700e487570060952900a3
:1037f800801f7800a0a52900801f780033f70700f4
:10380800e4875700c0952900801f780080a629000a
:10381800801f78002df70700e4875700809629005d
:10382800801f780090a72900801f780027f70700dd
:10383800e4875700360007000080fa000000060001
:103848000000fa0011088000f0f32f0000806000eb
:103858000060a000100888000080fa000000060040
:103868000000fa0001088000f00b200000816000d1
:1038780060042000710520000310200080497800b2
:103888008149780082497800213f8000f00f2800a4
:10389800808060000050200001007000203f8800f8
:1038a800b13d800000fc2f0000806000a000b30044
:1038b800b03d880000088000000178000260a00088
:1038c8006004200071052000031020008049780062
:1038d80081497800824978000080fa0000000600db
:1038e8000000fa002000200090488800afe3a900fb
:1038f800b143a900ae63a80000012000b01d8800f4
:10390800afe3a800b143a8000080fa000000060059
:103918000000fa00a1e1a900a021a900a0c1a90006
:10392800010d8000f0fc2f0000806000000d880071
:103938000080fa00000006000000fa00a1e1a900da
:103948009621ef00a1e1a8000080fa00000006001f
:103958000200fa00b00c8000000f7800a1e1a90075
:103968001e0078000080fa00000006000200fa003d
:10397800004f7800114798009e4078001e40900044
:1039880000c040000080fa00000006000800fa00ad
:10399800008fbe0022079800330798002e00900081
:1039a800be0090003e014000ae8148000200be000b
:1039b8000080fa00000006000200fa00004f7800bc
:1039c800114798009e00fb001e4090000000fb007d
:1039d8000088b900000078000080fa0000000600a6
:1039e8000800fa00008fbe002207980033079800ed
:1039f8009e0090002e0090000088b9000001780019
:103a0800be0090001e0078000088b9000000780011
:103a1800000141009e0078002e0090000008b800c8
:103a280001014100820078004f89de0082017800a0
:083a38000080fa000000060006
:020000040000fa
:103a4000000800004a000000800000001209000089
:103a50000200000082000000010000004a0800008f
:103a600088000000820000000100000000700800d3
:103a70007108700008700800700870000860080085
:103a80000000000000000000000000000000000036
:103a9000000000000000000000000000000208001c
:103aa00001019800089908009808980008980800f3
:103ab00098088800080000000000000000000000d6
:103ac00000000000000000000000000000000000f6
:103ad0000000020008020200c008c10008c008007f
:103ae000c008c00008c00800b008000000000000c6
:103af00000000000000000000000000000000000c6
:103b000000000000000000004a087200089a080047
:103b100000000000000000000000000000000000a5
:103b2000140900000200000080000000f4080000fa
:103b30001a00000082000000686a6c00747a4c0071
:103b40000000010000020000040008000010000056
:103b5000000020002b2d230030000000160900007b
:103b60000200000082000000040000000e090000b6
:103b70000400000080000000d208000022000000c5
:103b800082000000303132003334350036373800df
:103b90003941420043444500460030003132330091
:103ba0003435360037383900616263006465660079
:103bb0000000000018090000020000008000000062
:043bc0000000000001
:020000040000fa
:020000040015e5
:047e0000ffff000080
:020000040000fa
:020000040015e5
:047e2000ff1f000040
:020000040000fa
:020000040015e5
:047e300063ffff00ed
:020000040000fa
:020000040015e5
:047e38009effff00aa
:020000040000fa
:020000040015e5
:047e40009fffff00a1
:020000040000fa
:020000040015e5
:047e4800ffffff0039
:020000040000fa
:020000040015e5
:047e5000ddffff0053
:020000040000fa
:020000040015e5
:047e5800ffffff0029
:00000001FF
