:020000040000fa
:080000000001040000000000f3
:020000040000fa
:0400080038020000ba
:020000040000fa
:04000c0038020000b6
:020000040000fa
:0400100038020000b2
:020000040000fa
:0400140038020000ae
:020000040000fa
:0400180038020000aa
:020000040000fa
:04001c0038020000a6
:020000040000fa
:0400200038020000a2
:020000040000fa
:04002400380200009e
:020000040000fa
:04002800380200009a
:020000040000fa
:04002c003802000096
:020000040000fa
:0400300014020000b6
:020000040000fa
:04003400380200008e
:020000040000fa
:04003800380200008a
:020000040000fa
:04003c003802000086
:020000040000fa
:040040003802000082
:020000040000fa
:04004400380200007e
:020000040000fa
:04004800380200007a
:020000040000fa
:04004c003802000076
:020000040000fa
:040050003802000072
:020000040000fa
:04005400380200006e
:020000040000fa
:04005800380200006a
:020000040000fa
:04005c003802000066
:020000040000fa
:040060003802000062
:020000040000fa
:04006400380200005e
:020000040000fa
:04006800380200005a
:020000040000fa
:04006c003802000056
:020000040000fa
:040070003802000052
:020000040000fa
:04007400380200004e
:020000040000fa
:04007800380200004a
:020000040000fa
:04007c003802000046
:020000040000fa
:040080003802000042
:020000040000fa
:04008400380200003e
:020000040000fa
:04008800380200003a
:020000040000fa
:04008c003802000036
:020000040000fa
:040090003802000032
:020000040000fa
:04009400380200002e
:020000040000fa
:04009800380200002a
:020000040000fa
:04009c003802000026
:020000040000fa
:0400a0003802000022
:020000040000fa
:0400a400380200001e
:020000040000fa
:0400a800380200001a
:020000040000fa
:0400ac003802000016
:020000040000fa
:0400b0003802000012
:020000040000fa
:0400b400380200000e
:020000040000fa
:0400b800380200000a
:020000040000fa
:0400bc003802000006
:020000040000fa
:0400c0003802000002
:020000040000fa
:0400c40038020000fe
:020000040000fa
:0400c80038020000fa
:020000040000fa
:0400cc0038020000f6
:020000040000fa
:0400d00038020000f2
:020000040000fa
:0400d40038020000ee
:020000040000fa
:0400d80038020000ea
:020000040000fa
:0400dc0038020000e6
:020000040000fa
:0400e00038020000e2
:020000040000fa
:0400e40038020000de
:020000040000fa
:0400e80038020000da
:020000040000fa
:0400ec0038020000d6
:020000040000fa
:0400f00038020000d2
:020000040000fa
:0400f40038020000ce
:020000040000fa
:0400f80038020000ca
:020000040000fa
:0400fc0038020000c6
:020000040000fa
:0401000038020000c1
:020000040000fa
:0401040038020000bd
:020000040000fa
:0401080038020000b9
:020000040000fa
:04010c0038020000b5
:020000040000fa
:0401100038020000b1
:020000040000fa
:0401140038020000ad
:020000040000fa
:0401180038020000a9
:020000040000fa
:04011c0038020000a5
:020000040000fa
:0401200038020000a1
:020000040000fa
:04012400380200009d
:020000040000fa
:040128003802000099
:020000040000fa
:04012c003802000095
:020000040000fa
:040130003802000091
:020000040000fa
:04013400380200008d
:020000040000fa
:040138003802000089
:020000040000fa
:04013c003802000085
:020000040000fa
:040140003802000081
:020000040000fa
:04014400380200007d
:020000040000fa
:040148003802000079
:020000040000fa
:04014c003802000075
:020000040000fa
:040150003802000071
:020000040000fa
:04015400380200006d
:020000040000fa
:040158003802000069
:020000040000fa
:04015c003802000065
:020000040000fa
:040160003802000061
:020000040000fa
:04016400380200005d
:020000040000fa
:040168003802000059
:020000040000fa
:04016c003802000055
:020000040000fa
:040170003802000051
:020000040000fa
:04017400380200004d
:020000040000fa
:040178003802000049
:020000040000fa
:04017c003802000045
:020000040000fa
:040180003802000041
:020000040000fa
:04018400380200003d
:020000040000fa
:040188003802000039
:020000040000fa
:04018c003802000035
:020000040000fa
:040190003802000031
:020000040000fa
:04019400380200002d
:020000040000fa
:040198003802000029
:020000040000fa
:04019c003802000025
:020000040000fa
:0401a0003802000021
:020000040000fa
:0401a400380200001d
:020000040000fa
:0401a8003802000019
:020000040000fa
:0401ac003802000015
:020000040000fa
:0401b0003802000011
:020000040000fa
:0401b400380200000d
:020000040000fa
:0401b8003802000009
:020000040000fa
:0401bc003802000005
:020000040000fa
:0401c0003802000001
:020000040000fa
:0401c40038020000fd
:020000040000fa
:0401c80038020000f9
:020000040000fa
:0401cc0038020000f5
:020000040000fa
:0401d00038020000f1
:020000040000fa
:0401d40038020000ed
:020000040000fa
:0401d80038020000e9
:020000040000fa
:0401dc0038020000e5
:020000040000fa
:0401e00038020000e1
:020000040000fa
:0401e40038020000dd
:020000040000fa
:0401e80038020000d9
:020000040000fa
:0401ec0038020000d5
:020000040000fa
:0401f00038020000d1
:020000040000fa
:0401f40038020000cd
:020000040000fa
:0401f80038020000c9
:020000040000fa
:0401fc0038020000c5
:020000040000fa
:10020000ef8a20000eff27000e018800000000008a
:10021000000020000000e000020032000001200089
:100220002002880014000700080107000000e00019
:1002300003003a0080f42000010020000200370093
:100240000000200001002000810f7000010032003a
:1002500014000700000020000000e000020032004f
:100260000000020000000000420e0200000000003a
:100270000040da000000fe004440a900c007200052
:100280000000e00003003200002020009001880000
:100290004440a800000006008a1f78008b1f7800e9
:1002a00000000600a1028800800478000000eb0036
:1002b0001f003700e284440054a0b4009905ba003e
:1002c000e284440054a0b4009906ba00e2844400d9
:1002d00054a0b4000006eb00476fde00fd07b2003b
:1002e000ae018800636ce10003003a00eaff0700fa
:1002f0000000eb000e003700606ce10008003a00df
:10030000004deb000a05e800020039003420ec0043
:100310000af0a0008b05e900f9ff3e000400370059
:100320006168e100010032000086eb000b0007006d
:1003300019c7ba001905ba000e04e00003003a001c
:100340000a00e000dbff3a0000000600fe07b200f2
:10035000ae0288008a047800f5ff37000cd0a300b5
:10036000e20f4d001c00390089027800354dba00bb
:100370000a05e800020039003420ec000af0a00071
:100380008b05e9000f003200254dba000a05e80090
:10039000020039003420ec000af0a0008b05e900cf
:1003a000080032000c00e0000600320015cdba0053
:1003b0000a05e800020039003420ec000af0a00031
:1003c0008b05e9008984e80054a0b4000b00e0002c
:1003d000e2ff3a00000006009902ba00055d7800cd
:1003e0008b05e900f7ff3200c82ade00055d7800c2
:1003f0008b05e900f3ff32000c00e000f1ff320052
:1004000019ddba00eeff3700f4050400000000001b
:1004100000000400000000002c06040000000000a2
:100420005806040000000000809fbe000000fa0093
:10043000b03580004200de00614060000004a20090
:10044000614060000080fb00610060004200dd0050
:10045000b13580000120a10001007000b035880096
:100460008840a9000080fa004f00be00004006004e
:100470000040da000000fe000a00fa00110020002f
:10048000b1bf9f00c0bf9f006a8057006f05070083
:100490004fb897000080fa00000006000a00fa003a
:1004a000e20f500034003e0030458000e10f500064
:1004b00003003200e20f500011003a000c00370038
:1004c000833920000300e00001003a000040da0018
:1004d0009803e20002003500a023ef0099e3a80092
:1004e0009b43ab000d003a009b43a8000b00370074
:1004f000e33a20000300e00001003a000040da0087
:10050000ae03e20002003500b623ef00afe3a8001f
:10051000b143ab0001003a00b143a800820178006a
:100520000b0037003102fb00e10f500004003a00dd
:100530009b23ab00feff3a00e41c88000300370059
:10054000b123ab00feff3a00941d88008301e9004f
:100550000300e000f3ff3a00e10f500003003a000f
:100560009b03ab00feff32000b003700b103ab0072
:10057000feff32000800370033002000b3bf9f00a9
:10058000c0bf9f00d1bf9f00e2bf9f006a8057009d
:10059000300507006fb99700020078000080fa006c
:1005a000000006000a00fa0051002000b1bf9f00c1
:1005b000c0bf9f006a805700280507005fb89700fa
:1005c0000080fa0000000600889fbe0080047800ca
:1005d000604580000000e00004003a000e000700c3
:1005e0000084eb000000e000080035006845800052
:1005f0000900e00005003200090044000600070081
:100600000000e00001003d000084eb0008007800dd
:100610004f04be0000000600800078000100e000ea
:1006200003003a000000200060458800000005003b
:100630000080eb0002002000828f500002003e008c
:10064000614588000000eb00000006000000050086
:10065000818220006b000700800078000080eb00a2
:100660000100e0000400350081822000a00020008d
:10067000020007004f80de0000000600889fbe00d9
:100680008a1f78000004be00c90090006900900035
:10069000808f50000600390009007800b80007007c
:1006a000800078000080eb000100e00017003500ba
:1006b000084578004900900008587800c004980068
:1006c0001900780000b8a30004003a0000a8a300b5
:1006d00008003200ea4f540006003a000900780092
:1006e0000d000700800078000080eb000100e000b2
:1006f00006003a0000c0200019006000020032002d
:1007000049009000e00498000a80fb004f05780043
:100710004f04be0000000600889fbe008a1f7800bc
:10072000000478000800e0000d003a00688720000f
:10073000700544008004eb00580078000000e000e1
:1007400004003200f4ff07000000e00001003d005b
:100750008084eb008a0f5400f7ff3a002500370031
:1007600000002200180060008004eb00210032002d
:10077000a80490000f003700090151003840900094
:100780000000fb008900780044ff07000000e00043
:1007900007003c0028009000400498006004980086
:1007a000500c98001890a0008084eb0011003700d6
:1007b0008084440048019000828f5400eeff39008d
:1007c00028009000400498009800780002c02000a3
:1007d0000281600001003a003800900001e8a300a7
:1007e000020032006004980001003700500c9800ad
:1007f0008004eb00090078004f0578004f04be002c
:1008000000000600889fbe008a9fbe00800478001a
:10081000010478002c003700c800900068009000a8
:10082000808f500004003900080078005400070051
:100830000000e00037003500004020001800600094
:1008400009003200a10020000900780042000700e2
:10085000800578000b00e000030032006185140081
:100860000a854500040037000900780034000700bd
:10087000000578008005eb0048009000e80090003b
:10088000808050008a8f50000200310001057800fe
:100890008005eb000a01780089007800210007003c
:1008a000480090000a004000400498000b00e0005f
:1008b000040032000800780097ff07000000e00005
:1008c00014003a008a8444001904e000d2ff3a0080
:1008d0000080200018006000060032000800780048
:1008e0008dff0700800078000080eb000100e00031
:1008f00009003a0001c02000988060000000eb0071
:100900000500320048009000600498000000eb00f1
:10091000010037000080eb004f05be004f04be0011
:10092000000006008001780002003700b15978000d
:100930000201e9000200e000fcff3a0000000600ae
:1009400080007800010178003104e000fdff3a00ea
:1009500000005100000006000001eb0000027800da
:10096000b041780081cf510001003a0004017800c5
:100970000304e000f9ff3a000200780000000600de
:10098000889fbe008a1f780000047800c80090008d
:10099000680190000000eb00828f50003c0039009d
:1009a000180078002200290002016000e20f5100c7
:1009b00007003200012020000000e00001003500a7
:1009c00001202400008c70000080eb003000370014
:1009d0000200260002006000820f500009003a0069
:1009e00038009000808f5000060039000800780021
:1009f00049ff0700800078000080eb000100e00064
:100a000023003a001805780000c0200000006500af
:100a100018003a00a804900060022000080040007e
:100a2000808f540013003a00002020007502070058
:100a3000200498000000e00005003a002904980016
:100a4000490498008904e800390498000800370038
:100a50000a60a0000a0c78004004980001202000e1
:100a60008080400031049800400c9800500c9800a1
:100a70000c000700280090005004980038009000f7
:100a80006004980000002600180c70000000eb00c5
:100a90004f0578004f04be0000000600405f2000b4
:100aa00061003700881f7800888a20001804e00061
:100ab00003003a00f9ff070020c0b300004c7800a3
:100ac0004f04780000000600889fbe0000047800f4
:100ad0000800780010ff0700800478000004200060
:100ae0001800600002003200280090008c0107000e
:100af0000000eb0020049800384090000004e00063
:100b0000050035000000fb005bfe07000000e00070
:100b1000010032008084eb00181090000000e0001b
:100b2000080032009ffe07000000e00001003200d4
:100b30008084eb0018109000790107000000eb00a2
:100b40001014980000082000180060001500320002
:100b50000001eb006000b800838720000202d00093
:100b600063027a00880f520005003a00000040003e
:100b700081804800008041000008eb00060037003b
:100b800061004000e08048000201e800e80f5000ea
:100b9000e08f5800f0ff3a0008007800600107007d
:100ba0000e003700000c780000c0eb0030449800c5
:100bb00060022000080040002004980040049800d3
:100bc00050049800400c980060049800500c980065
:100bd0007004980076004400000c9800090078002a
:100be0004f04be0000000600881f78000004eb00e0
:100bf0006140b800e2ff2f00f3ff2f00dd03070084
:100c000062882000620078000000e00001003200ed
:100c1000adff07000804e800e80f5400f4ff3a00b5
:100c20004f04780000000600010020000100e000f1
:100c300008003200010080000100e00005003200e1
:100c40008100e900010088008100d00002008000de
:100c500000b1780000000600889fbe000004780004
:100c6000010078008204780088017800090178008a
:100c7000110020005c010700890f500001003200c4
:100c80000004eb00080078004f04be0000000600de
:100c90000000fa00e88157004fb9970081822000d8
:100ca000c0622000cc0007000080fa0000000600af
:100cb000889fbe00000478000203be008104780013
:100cc0000802780089017800120020000600be00aa
:100cd000f2020700890f5000010032000004eb000f
:100ce000080078004f04be00000006006800fa000b
:100cf000889fbe008a9fbe008004780001047800af
:100d000082057800030578008400780000f92f0040
:100d10000f004000df020700d98f9f00fb8f9f006c
:100d20000000eb00a09f9f00e88f9f009a84fb00cb
:100d30000904fb008904ea00cf4cde0050022000c9
:100d4000800f54000d003200e18f54000b003a0078
:100d5000090178008a0078007f889700df89970072
:100d600003000100f08f9f000000e00095003200ba
:100d70002f9897000000e800a09f9f0009054500fc
:100d800050022000800f5400040032000800e000f0
:100d9000e6ff3a002f9897008b0037000000eb0029
:100da000809f9f00f0979f00e0979f00d0979f0043
:100db000c0979f00b0979f0007003700c1892000af
:100dc000010050000000400001892000610078000f
:100dd000cf98970001007000c09f9f000a04780020
:100de00008057800ba4478008900fb00c08920001b
:100df000b80107000000e000f0ff3a00a1c2b30014
:100e000081cf54000e003a008f8897000180e900de
:100e1000808f9f0010007800b09f9f000000e000ce
:100e200005003d000000ea00b09f9f004f9897002a
:100e30000020a000c09f9f000804e80010003700b9
:100e4000b09f9f00880078000000eb00050037008d
:100e5000f3ff2700830f5000020032006a02b9003e
:100e60000400410001047800880078003101fb0093
:100e70000203b100e90f5100f5ff3600b09f9f005b
:100e8000e0c2b300984f1000020032000080eb0077
:100e900019003700a0c2b300d84f100007003a0075
:100ea0008f8897000180e900808f9f0010007800f4
:100eb000909f9f000804e800100037000000eb003e
:100ec000909f9f008800780005003700f3ff2700ff
:100ed000830f5000020032006a02b9000400410092
:100ee00001047800880078003101fb000203b100a2
:100ef000e90f5100f5ff3600909f9f00984478005d
:100f00008900fb0080882000720107000000e000db
:100f1000020032000804e800010037008044eb00c2
:100f2000a97f9f0080c6b30080cf540006003a001e
:100f300098cf140010003a0066405000a07f9f0038
:100f40000804e8000c003700c0c6b30080cf54008e
:100f500009003a0098cf140007003a0067404000ab
:100f6000d84f100002003a006e40500001003700d8
:100f700010c7b300a07f9f001801fb00c3fb2f0028
:100f80008f81410001f92f008f80400020f92f0050
:100f90000f004000150007000000e00009003a00c3
:100fa000c1fb2f008f80400020f92f000f00400070
:100fb0005e0107000000e000020035000805e800bf
:100fc0005aff37000080eb004f05be004f04be0003
:100fd0000080fa0000000600030278008201780019
:100fe000010178008165200040ff3700889fbe0026
:100ff0008a1f78000004780030c5b300804f51008c
:101000000800320030c7b300804f510005003200a5
:1010100051c2b30028089000814f510035003a00ba
:10102000320037000869900050c6b300804f51006d
:101030001a003a001101780064005100800878001d
:101040001000be00000c9800110c98008811900050
:101050000300e00007003d008081eb000001eb0091
:10106000a90207000001be0088089000810051001d
:10107000080037000001eb00a302070000817000a8
:101080000300320008099000820050000100370080
:1010900088109000410c98001d0037001180e90075
:1010a00080087800100578007a0498008814900071
:1010b0000900e00004003d000a00780020fe07005f
:1010c0008004780007003700090178008000eb00f9
:1010d0000a007800f50007000000e000010032007f
:1010e0008a045000490c980009003700827178008a
:1010f00005003700808141000204e00001003a0051
:1011000001417800824978000000e800200c980036
:101110000000eb004f0578004f04be000000060001
:101120000000e0002f003200c0017800e38f510082
:101130002c0036000308a3002a003a002145800055
:101140000100e00002003200810f50000400310075
:1011500011009800204588001600370082007800b2
:10116000110190000200e00002003200800f5100e7
:10117000faff39001102780084824000850f500088
:1011800018003900808f520003003a0083084200a3
:1011900001007800070037000200e0000300320081
:1011a00083014000830f51000e00390012009800a7
:1011b00090009800900090000100e00009003200cb
:1011c00010014000828f500006003a00228a200061
:1011d0000009eb0010017800110841009100900017
:1011e0001100980000000600889fbe008a9fbe0084
:1011f0008c9fbe008e1f78000006780001047800e6
:1012000002007800830478000881b90002077800a2
:101210000200e000420032000800e000410032001d
:1012200082057800c900900069009000808f50000e
:101230000400390009007800d1fd07000000e0003b
:101240002900350000402000190060000a0032002b
:101250000b017800a10020000c007800930007002b
:10126000800678000d00e0000600320061051600df
:101270000a854600040037000b0578008006eb0065
:10128000010037000b05780049009000e90090004c
:10129000808050008a8f50000200310001057800e4
:1012a0008006eb000a0178008c0078009dfd0700a5
:1012b0008a855500490090000a004000c00498004b
:1012c0000d00e000040032000900780012fd070064
:1012d0000000e00004003a000b00e00002003200d1
:1012e0000a064600cfff370000802000190060008a
:1012f000020032000900780007fd070000c020004e
:10130000190060000200320049009000e0049800db
:101310008b055700110009008885d80001003700af
:101320000000eb004f0778004f06be004f05be00df
:101330004f04be0000000600889fbe000004780035
:10134000114580000100e000020032000100780039
:101350000d00370021458000408a2000040037003e
:10136000910f5400250036000180e80091009000a4
:101370000100e000faff3a0010003700920f54001d
:101380001e0036000280e800100178000200e00034
:10139000faff3a001101780021458000408a2000c0
:1013a00004003700910f5400140036000180e8005b
:1013b00091009000828f5000faff3a00594580005a
:1013c000888f5400010031008804780009007800fb
:1013d0004c0007000000e00004003a00888f540031
:1013e000050032008904d100f5ff370009187800a4
:1013f0004bff0700d2ff37000000eb004f04be0098
:1014000000000600881f7800630440000800a10067
:101410008000eb00800f540021003600e30f5400e1
:1014200001003e004800200008007800c2ff0700cd
:101430008000eb000000e00019003200900078000e
:101440009101780064815100880f51000300310040
:101450001101900002087800070037000881400061
:1014600002087800910190001301980010017800a3
:101470001109140088087800100178000000eb00c2
:101480000200e00004003200920190000300e0003e
:10149000010032000280e800104588008180e800e9
:1014a000010078004f0478000000060003003700b8
:1014b000b0cf1000050032000201e9008001780081
:1014c0000200e000faff3a00000005000300780087
:1014d00000000600020037000304e00006003200ae
:1014e0000001780002007800b041780081cf5100ff
:1014f000f9ff3a00010037000001eb00020078001c
:1015000000000600800078000000eb000100e00011
:1015100005003400010078002bfc0700e10f4000bb
:1015200001003a000000eb00000006000400fa0091
:10153000889fbe008a9fbe008c1f78000004780040
:1015400001067800a81490002808900080845400b8
:10155000380890008084540048089000808454002b
:1015600058089000808454006808900080845400db
:1015700078089000808454000002220090bf9f00f1
:1015800000032300a0bf9f00381090000028a30094
:1015900015003a000900e000130034000905780046
:1015a0008a057800e20f5500010036002b0020006c
:1015b000c80190000b017800ee8057006800900091
:1015c00003000100600498000000e000aa0032005f
:1015d000181090000b004000101498000b055500e7
:1015e0004240a900eeff3c00280990000200e00004
:1015f0000c003400c80190008c0078006800900056
:1016000003000100600498008080eb000000e0000f
:101610009a00320098109000280890000080400046
:1016200010149800380d90000a00e00011003400fa
:101630008a057800e20f5500010036002b002000db
:10164000c80190000b017800ec8057006800900002
:1016500003000100600498000000e00086003200f2
:10166000181090000b004000101498000b05550056
:10167000edff370008699000c808900050c6b3001d
:10168000804f510008003a000100e00015003400ce
:101690005802900008099000980990006800900096
:1016a00004000100070037000100e0000d003400d5
:1016b000c801900001017800f800900068009000d7
:1016c00003000100600498008080eb000000e0004f
:1016d0006a00320098109000480890000080400096
:1016e00010149800580d90000a00e000110034001a
:1016f0008a057800e20f5500010036002b0020001b
:10170000c80190000b017800ec8057006800900041
:1017100003000100600498000000e0005600320061
:10172000181090000b004000101498000b05550095
:10173000edff3700086990006808900051c6b300bb
:10174000814f51000d003a000000e0001c00340001
:1017500078019000c8089000010141006111b800b3
:10176000828fd2008381d2005802900080007800de
:101770006800900004000100090037000000e0004c
:101780000f00340078019000c808900081004100eb
:10179000c80190000001780068009000030001007b
:1017a000600498008080eb000000e000330032000d
:1017b0009810900068089000008040001014980075
:1017c000780d90000a00e000110034008a057800ce
:1017d000e20f5500010036002b002000c8019000e8
:1017e0000b017800ec8057006800900003000100b6
:1017f000600498000000e0001f0032001810900004
:101800000b004000101498000b055500edff370049
:10181000381090008000eb000028a3001700320071
:101820000900e0001500340009057800e28f54003b
:10183000010036002a002000c80190000a0178004b
:10184000ee805700680090000300010060049800db
:101850000000e00008003200181090000a0040006c
:10186000101498008a8454004240a900eeff3c0006
:101870008000eb00010037008080eb000100780061
:101880004f0678004f05be004f04be000080fa00ee
:10189000000006000108780000000600e687470007
:1018a000889fbe008a9fbe008c9fbe008e1f78005e
:1018b00082bf9f0004047800029ab900f4b79f0029
:1018c0000400e000590032000fb997000200e00068
:1018d000570032000006be0004077800c8009000e0
:1018e00068009000808f50000400390008007800e4
:1018f00023fc07000000e0003b0035000040200012
:10190000180060000a0032008e017800a20020005a
:101910000c00be007c0007000005be0000807500c2
:10192000070032008c0455008904e80005003700e8
:101930008e0478000a0020000b0020000100370010
:101940008e0478004801900068009000020050006a
:10195000890f500003003100800478000a00200045
:101960000b0020006111b800828fd2008381d20069
:10197000090278000c00be003a0007000907570072
:101980004800900009004000400498000a85750056
:1019900004003200080078005ffb07000000e00050
:1019a00011003a000e00e0000f0032006148b8005c
:1019b000808fd2008180d2000000780000f0a1006a
:1019c0008c01d0000001d000028641004220a80016
:1019d00081864e004200a9004220ae004200a800cd
:1019e0000c86d300bdff3700008020001800600087
:1019f000020032000800780047fb070000c020000a
:101a00001800600002003200c801900063049800d2
:101a10007fb097000e0750000fb997001100090022
:101a20000287d80080017800010037008001eb00b8
:101a3000030078004f0778004f06be004f05be0038
:101a40004f04be006f00b1000000060000c0da00c5
:101a50000000060000c0da000000060000c0da0046
:101a6000000006003400f8003200f8000203be0057
:101a7000820270008502720002f0a6008301e80075
:101a8000a301880000f0a6008100e8009101880011
:101a90001500b2000c003200104978000402e90081
:101aa0001500320061014100020039003420ec00d1
:101ab0000200280061004000f7ff39003220ec00ee
:101ac00000002800f4ff3700100978000482e900c4
:101ad0000900320062014100020039003420ec00ac
:101ae0000200280062004000f7ff39003220ec00bd
:101af00000002800f4ff37003200f9003400f9003c
:101b00000601be00000006000300e00007003200ee
:101b100095018000910188001042780095018800ad
:101b20000402fb00820f5200110032008301e90021
:101b3000950180009101880010427800950188008d
:101b40000404e00008003200000278001000b00039
:101b500000026a004260af0000f0a0000482d200e0
:101b60000180b000e8ff37000000200001002000e5
:101b700000000600020ab900001bb9000200b8000c
:0c1b8000810042008100430000000600cc
:020000040000fa
:101b8c006d630000752d000069720000712d00005e
:101b9c00626500006e630000686d000061720000f9
:101bac006b000000303000002e30000031000000cf
:101bbc00536500007020000032310000203200001c
:101bcc003032000030000000313400003a320000a6
:101bdc00343a000035350000004300006f6f000000
:101bec006c2d00004d430000552e0000636f00006b
:101bfc006d0d000000500000726f00006a6500005f
:101c0c00637400003a200000257300000d0a0000e8
:101c1c000056000065720000736900006f6e0000d2
:101c2c003a200000257300000d0a0000004200005d
:101c3c00756900006c640000206400006174000091
:101c4c00653a000020250000730d00000a0000001a
:101c5c0042750000696c000064200000746900008b
:101c6c006d6500003a200000257300000d0a00008d
:081c7c000d0a00000000000049
:020000040000fa
:101c84000000fa0001000700ffff37000000fa001f
:101c940022000700290007005000070030df280059
:101ca4006afa070060dc2800801f780010e0280032
:101cb400801f7800f5fb0700e487570080dd2800cb
:101cc400801f7800f0e02800801f7800effb0700f9
:101cd400e4875700e0dd2800801f7800d0e1280069
:101ce400801f7800e9fb0700e4875700a0de280086
:101cf400801f7800e0e22800801f7800e3fb0700e3
:101d0400e487570041000700b246a900b646a9007f
:101d140083e0a8000080fa00000006000000fa003a
:101d240011088000f0f32f00008060000060a00024
:101d3400100888000080fa00000006000000fa0085
:101d44009e06a900a206a90001088000f00b20004d
:101d54000081600060042000710520000310200051
:101d6400804978008149780082497800213f8000c9
:101d7400f00f2800808060000050200001007000f7
:101d8400203f8800f13e8000f00f28008080600032
:101d940000d0200001007000f03e8800b13d8000ba
:101da40000fc2f0000806000a000b300b03d88005c
:101db40000088000000178000260a0006004200098
:101dc40071052000031020008049780081497800c3
:101dd400824978000080fa00000006000000fa0042
:101de4002000200030458800afe3a900b143a900da
:101df400ae63a80000012000b01d8800afe3a80076
:101e0400b143a8000080fa00000006000000fa00b8
:101e1400a1e1a9009621ef00a021a900010d8000f5
:101e2400f0fc2f00008060000040a000000d88003e
:101e3400803e2000e00c88008111800080ff2f008c
:101e44000080600080118800401f2000b0118800cd
:101e540081118000f03f2e00008060008011880016
:101e64008111800080ff2f00008060006000b300bb
:101e74008011880088e0a9008840a9009840a80043
:0c1e8400a1e1a8000080fa0000000600a8
:020000040000fa
:101e9000a60800000200000082000000010000000f
:101ea000000800008800000082000000010000001f
:101eb0000026080027082600082608002608260015
:101ec00008160800000000000000000000000000ec
:101ed0000000000000000000000000000000000002
:101ee0000002080001014e00084f08004e084e0095
:101ef000084e08004e083e000800000000000000e8
:101f000000000000000000000000000000000000d1
:101f100000000000000002000802020076087700be
:101f20000876080076087600087608006608000043
:101f300000000000000000000000000000000000a1
:101f40000000000000000000000000000008280061
:101f50000850080000000000000000000000000021
:101f600000000000a808000002000000800000003f
:101f7000880800001a00000082000000686a6c00f7
:101f8000747a4c0000000100000200000400080008
:101f900000100000000020002b2d23003000000066
:101fa000aa080000020000008200000004000000f7
:101fb000a20800000400000080000000ac0800003f
:0c1fc00002000000800000000000000093
:020000040000fa
:020000040015e5
:047e0000ffff000080
:020000040000fa
:020000040015e5
:047e2000ff1f000040
:020000040000fa
:020000040015e5
:047e300063ffff00ed
:020000040000fa
:020000040015e5
:047e38009effff00aa
:020000040000fa
:020000040015e5
:047e40009fffff00a1
:020000040000fa
:020000040015e5
:047e4800ffffff0039
:020000040000fa
:020000040015e5
:047e5000ddffff0053
:020000040000fa
:020000040015e5
:047e5800ffffff0029
:00000001FF
