:020000040000FA
:08000000803102288731E12F55
:10000A000800F401F501701C0B280C28102872084E
:10001A00F4077308F53D0130F235F30D890B112809
:10002A000130F136F00C890B162870087104031D93
:10003A001F28202808287508F1007408F000080015
:10004A00F2012030860000308700473FF000F01FA1
:10005A002F28302851284001A009A109A209A30983
:10006A00A409A509A609A709A00A031D4F28A10AE0
:10007A00031D4F28A20A031D4F28A30A031D4F2858
:10008A00A40A031D4F28A50A031D4F28A60A031D0B
:10009A004F28A70AF201F20A2830860000308700AA
:1000AA00473FF000F01F5A285B287E284001A80924
:1000BA00A909AA09AB09AC09AD09AE09AF09A80A91
:1000CA00031D7A28A90A031D7A28AA0A031D7A2879
:1000DA00AB0A031D7A28AC0A031D7A28AD0A031D50
:1000EA007A28AE0A031D7A28AF0A0130F000700898
:1000FA00F20673308600003087000830F0000030C6
:10010A001E00F00B85284001200821042204230444
:10011A002404250426042704031994289528F12881
:10012A00F101F10AA428A035A10DA20DA30DA40D79
:10013A00A50DA60DA70D0130F0007008F107A71F45
:10014A00A728A8289828F335F40DF50DF60DF70D14
:10015A00F80DF90DFA0D27082F02031DCE282608DF
:10016A002E02031DCE2825082D02031DCE282408A1
:10017A002C02031DCE2823082B02031DCE28220899
:10018A002A02031DCE2821082902031DCE28200891
:10019A002802031CD128D228E3282008A802210813
:1001AA00A93B2208AA3B2308AB3B2408AC3B250801
:1001BA00AD3B2608AE3B2708AF3B7314A736A60C07
:1001CA00A50CA40CA30CA20CA10CA00C0130F102EA
:1001DA00031DF028F128A82872080319F528F62823
:1001EA001429F309F409F509F609F709F809F909CF
:1001FA00FA09F30A031D1429F40A031D1429F50A3E
:10020A00031D1429F60A031D1429F70A031D1429CC
:10021A00F80A031D1429F90A031D1429FA0A730896
:10022A004001A0007408A1007508A2007608A30086
:10023A007708A4007808A5007908A6007A08A7001C
:10024A0008004001DF004E0886008701403FD000C9
:10025A00413FD10050088400510885001200253A18
:10026A00031D38293929102A4E08860087010130D2
:10027A00810741310318810A4101CE01CF01D20120
:10028A00D301FF30D000FF30D10040014E08860074
:10029A008701403FD000413FD100500884005108F7
:1002AA0085001200643A03195B295C296D294E08FE
:1002BA0086008701403FD000413FD10050088400AA
:1002CA00510885001200693A031D6C296D29A82975
:1002DA004E08860087010130810741310318810ADF
:1002EA004F088600870101088400850102308107D2
:1002FA00003FD000013FD1005008D5005108D60078
:10030A00890D893B8909D700D800D900DA00DB00BA
:10031A00DC005508B0005608B1005708B20058086A
:10032A00B3005908B4005A08B5005B08B6005C0867
:10033A00B7005F0882313422813140013108CF0091
:10034A003008CE00332A4E0886008701403FD0008D
:10035A00413FD10050088400510885001200733AC9
:10036A00031DB829B929DB294E0886008701013007
:10037A00810741310318810A4F0886008701010865
:10038A008400850102308107003FDD00013FDE0065
:10039A005E08FA005D08F9005F088E313F26813158
:1003AA007A084001CF007908CE00332A4E08860029
:1003BA008701403FD000413FD100500884005108D6
:1003CA0085001200253A031DEB29EC29052A4E085F
:1003DA00860087010130810741310318810A2530DF
:1003EA00F1000030F2005F08D0005008F3008D31B0
:1003FA005F25813101304001CE000030CF00332A21
:10040A004E08860087010130810741310318810AAD
:10041A00CE01CF01332A4E0886008701403FD00023
:10042A00413FD10050088400510885000008D200DD
:10043A00D3015208F1005308F2005F08D4005408AF
:10044A00F3008D315F25813140014E088600870116
:10045A000130810741310318810AFF290800400150
:10046A00BF003008C4003108C5003208C60033088E
:10047A00C7003408C8003508C9003608CA0037085A
:10048A00CB004430860000308700473FB800B81BD5
:10049A004F2A512A0130522A00304001B900BA01CC
:1004AA003908C2003A08C3004208430403195E2A05
:1004BA005F2A7D2AC409C509C609C709C809C90925
:1004CA00CA09CB09C40A031D7D2AC50A031D7D2A50
:1004DA00C60A031D7D2AC70A031D7D2AC80A031DF1
:1004EA007D2AC90A031D7D2ACA0A031D7D2ACB0A51
:1004FA004101D11B812A822A862AFD30D205FF308A
:10050A00D3055108803A4001B80080303802031DF3
:10051A00912A0130410150020318942A952A9B2AF4
:10052A0001304001BD000030BE00A32A410151083C
:10053A004001BE00410150084001BD0041014F0881
:10054A004001C10041014E084001C0004208430475
:10055A00031DB02AB12AB62A4101521DB52AB62A6C
:10056A00BB2AFF304001C007FF30C13D1F304001A8
:10057A00CC000030CD004201BF012C2BFF304001DE
:10058A00CC07FF30CD3D0A30A000A101A201A30192
:10059A00A401A501A601A7014408A8004508A900CD
:1005AA004608AA004708AB004808AC004908AD0055
:1005BA004A08AE004B08AF008F311627823140013E
:1005CA002108F4002008F3008C317024823173086A
:1005DA00303E4001B8004C08203E860001308700BA
:1005EA0038088100FF30BD07FF30BE3DFF30C0072D
:1005FA00FF30C13D0A30A000A101A201A301A4015C
:10060A00A501A601A7014408A8004508A9004608B3
:10061A00AA004708AB004808AC004908AD004A08E0
:10062A00AE004B08AF0080312520823140012008FE
:10063A00C4002108C5002208C6002308C7002408F0
:10064A00C8002508C9002608CA002708CB004001AF
:10065A004D08803AB80080303802031D362B01302D
:10066A004C02031C392B3A2B672B400144084504E2
:10067A0046044704480449044A044B04031D462B14
:10068A00472BC32A3E08803AB80080303802031D3F
:10069A00502B01303D020318532B542BC32A40011F
:1006AA004108803AB80080303802031D5E2B0130C1
:1006BA004002031C612B622B672B4101D218662B67
:1006CA00672BC32A400142084304031D6D2B6E2B7E
:1006DA00732B4101521D722B732B902BFF3040015B
:1006EA00CC07FF30CD3D42084304031D7D2B7E2BF2
:1006FA00832B2B30BB000030BC00872B2D30BB0076
:10070A000030BC003B08B8004C08203E860001308F
:10071A0087003808810040014C08203EB80038089C
:10072A00A4004108A6004008A5003F088D31E32532
:10073A00823140012508B1002408B00008008D313B
:10074A009E2583314101EE01EF0102304101EC00A7
:10075A006C08E4000330EC006C08E3008B31BB2327
:10076A008331000003304101EC006C08F0000230D4
:10077A008B31B72383314101ED006D08E20000009F
:10078A008B31E32383317008F73E4101DE00FF30ED
:10079A00713DDF008B31BB238331000003304101FF
:1007AA00EC006C08F60002308C311724833177088C
:1007BA004101E1007608E00000008B31E323833138
:1007CA007008F73E4101DA00FF30713DDB0000306E
:1007DA00CB000030CA000030C9000430C800003025
:1007EA00C7000030C6000030C5000530C4008B3198
:1007FA00BB23833100000030F3000030F2000030E8
:10080A00F1000430F0000030F7000030F60000304C
:10081A00F5000530F4008C312A2483317308410134
:10082A00C3007208C2007108C1007008C00000004D
:10083A008B31E32383317008F73E4101DC00FF303E
:10084A00713DDD008B31BB23833100000030400154
:10085A00A3000030A2000030A1000430A000003044
:10086A00A7000030A6000030A5000530A4008C3196
:10087A00AD248331400120084101A0004001210834
:10088A004101A100400122084101A20040012308C0
:10089A004101A300400124084101A40040012508A8
:1008AA004101A500400126084101A6004001270890
:1008BA004101A70000008B31E32383317008F73E22
:1008CA004101D800FF30713DD9004030BF00C0302F
:1008DA00BE000030BD000030BC00C030BB00E430B8
:1008EA00BA000030B9000030B8008B31BB23833125
:1008FA00000041013B084001A30041013A084001C0
:10090A00A200410139084001A10041013808400113
:10091A00A00041013F084001A70041013E084001F3
:10092A00A60041013D084001A50041013C084001E3
:10093A00A40085318A258331400123084101B7008B
:10094A00400122084101B600400121084101B500D9
:10095A00400120084101B40000008B31E3238331B8
:10096A007008F73E4101D600FF30713DD700403094
:10097A00B300D930B2009930B1009A30B000C0301B
:10098A00AF00E430AE000030AD000030AC008B3177
:10099A00BB238331000041012F084001A30041011C
:1009AA002E084001A20041012D084001A100410189
:1009BA002C084001A000410133084001A700410171
:1009CA0032084001A600410131084001A500410159
:1009DA0030084001A40085318A258331400123086B
:1009EA004101AB00400122084101AA00400121084F
:1009FA004101A900400120084101A80000008B31F3
:100A0A00E32383317008F73E4101D400FF30713D82
:100A1A00D5000130EE070030EF3D6F08803AEC0058
:100A2A0080306C02031D1B2D02306E02031C1E2D2A
:100A3A001F2DAA2B06304001E8009030E9008B31C7
:100A4A00F223833184304001E8009030E90041010B
:100A5A005F084001EB0041015E084001EA008B316A
:100A6A00F2238331AE304001E8009030E9004101C1
:100A7A005D084001EB0041015C084001EA008B314E
:100A8A00F22383316F304001E8009030E9004101E0
:100A9A005B084001EB0041015A084001EA008B3132
:100AAA00F223833199304001E8009030E900410196
:100ABA0059084001EB00410158084001EA008B3116
:100ACA00F223833157304001E8009030E9004101B8
:100ADA0057084001EB00410156084001EA008B31FA
:100AEA00F22383313D304001E8009030E9004101B2
:100AFA0055084001EB00410154084001EA008B31DE
:100B0A00F2238331872D803102284001230880395E
:100B1A00F9007908A8002335F9007908AE00A21F68
:100B2A00972D982D992D2E142E0803199D2D9E2D43
:100B3A00AD2D2E0A031DA22DA32DAB2D0030A3002F
:100B4A000030A2000030A1000030A000A217B52D8D
:100B5A000030A3000030A2000030A1000030A00045
:100B6A0027088039F9007908A8062735F900790895
:100B7A00AD00A61FC12DC22DC32D2D142D0803199A
:100B8A00C72DC82DD72D2D0A031DCC2DCD2DD52D22
:100B9A000030A7000030A6000030A5000030A400F5
:100BAA00A617DF2D0030A7000030A6000030A500F0
:100BBA000030A4002D080319E32DE42DE92D2E0899
:100BCA00031DE82DE92DF22D0030A3000030A2000C
:100BDA000030A1000030A000E02F2008F9007908B9
:100BEA00F00026088C318A24853171084001B4004E
:100BFA007008B3003308F900FA01FB01FC017C0814
:100C0A00AC007B08AB007A08AA007908A90034086E
:100C1A00F900FA01FB01FC017C08B2007B08B10073
:100C2A007A08B0007908AF002108F9007908F000C5
:100C3A0025088C318A24853171084001B400700876
:100C4A00B3003308F900FA01FB01FC017908A9078E
:100C5A007A08AA3D7B08AB3D7C08AC3D3408F90014
:100C6A00FA01FB01FC017908AF077A08B03D7B085D
:100C7A00B13D7C08B23D2208F9007908F000240849
:100C8A008C318A24853171084001B4007008B300A0
:100C9A003308F900FA01FB01FC017908A9077A086F
:100CAA00AA3D7B08AB3D7C08AC3D3408F900FA014B
:100CBA00FB01FC017908AF077A08B03D7B08B13D1A
:100CCA007C08B23D0830A935AA0DAB0DAC0D890BD5
:100CDA00682E2108F9007908F00024088C318A244A
:100CEA00853171084001B4007008B3003308A907C0
:100CFA003408AA3D0030AB3DAC3D2008F900790824
:100D0A00F00025088C318A24853171084001B4002D
:100D1A007008B3003308A9073408AA3D0030AB3D78
:100D2A00AC3D0830A935AA0DAB0DAC0D890B972E39
:100D3A002008F9007908F00024088C318A248531CA
:100D4A0071084001B4007008B3003308A9073408D9
:100D5A00AA3D0030AB3DAC3D2108F9007908F0000E
:100D6A0026088C318A24853171084001B400700844
:100D7A00B3003308AF073408B03D0030B13DB23D8F
:100D8A002208F9007908F00025088C318A24853177
:100D9A0071084001B4007008B3003308AF07340883
:100DAA00B03D0030B13DB23D2208F9007908F000AB
:100DBA0026088C318A24853171084001B4007008F4
:100DCA00B3003308F9003408FA00FB01FC010830CB
:100DDA00F935FA0DFB0DFC0D890BED2E7908AF07DD
:100DEA007A08B03D7B08B13D7C08B23D2908F9007C
:100DFA002A08FA002B08FB002C08FC001830FC36E5
:100E0A00FB0CFA0CF90C890B042F7908AF077A0846
:100E1A00B03D7B08B13D7C08B23D0830A935AA0D2A
:100E2A00AB0DAC0D890B132F2E082D07F900FA0113
:100E3A00FA0D7908823EB300FF307A3DB4003C2FA8
:100E4A000130AF35B00DB10DB20D890B262FAC1F95
:100E5A002F2F302F312F2F140130A935AA0DAB0DAA
:100E6A00AC0D890B322FFF30B307FF30B43DB11FF1
:100E7A003F2F402F252FAD01AC1F442F452F612F47
:100E8A00FF302905F900FF302A05FA00FF302B054B
:100E9A00FB007F302C05FC007C087B047A04790473
:100EAA000319582F592F5C2FAD01AD0A612F2F1C42
:100EBA005F2F602F612F592F2D080319652F662F79
:100ECA008E2F0130AF070030B03D0030B13D003009
:100EDA00B23D321C712F722F8E2F2F08F900300865
:100EEA00FA003108FB003208FC000130FD00FC3733
:100EFA00FB0CFA0CF90CFD0B7C2F7C08B2007B086A
:100F0A00B1007A08B0007908AF000130B3070030A9
:100F1A00B43D3408803AF90080307902031D972FD6
:100F2A00FF303302031C9A2F9B2FA52F7F304001DD
:100F3A00B2008030B1000030B0000030AF00D42FD2
:100F4A0040013408803AF90080307902031DAF2F3E
:100F5A00013033020318B22FB32FBE2F00304001E5
:100F6A00B2000030B1000030B0000030AF00A8017C
:100F7A00D42F40013308F9007908AE00FF30AF05DD
:100F8A00FF30B0057F30B1050030B2052E1CCE2FE0
:100F9A00CF2FD02FB1172E36F9007908B2002808C2
:100FAA00F9007908B2043208A3003108A200300817
:100FBA00A1002F08A0000800D33084008B308500E0
:100FCA00E53086000030870007308B31C623873131
:100FDA00A03084000030850045308B31C023873132
:100FEA00203084000130850020308B31C0238731C6
:060FFA0040018331A42B2D
:10176E00F10071087007080044018D018C010E1400
:10177E000800640080010131890BC12B0034FE008A
:10178E0012001E00FE0BC72B003444010E10110870
:10179E00F03901389100080028346E3475346C34F9
:1017AE006C3429340034F00054019E1CDF2BE02BE6
:1017BE00DB2B70089A00080044010E100C08F20092
:1017CE007208F3000D08F2007208F4007408F100BC
:1017DE007308F00008006A304001EC006C08EF005E
:1017EE006908E1006808E0006F30EC006C08E20068
:1017FE0000308C31FB248B31080054019D139E1256
:10180E004E010F1319138F13991354011E121E1527
:10181E001D169F159C0144309B009D179E160800B7
:10182E00F9007908F000F101F01BF1037608F200DF
:10183E00F301F21BF303803106208C317108F7009F
:10184E007008F600080070087407F8007108753DFE
:10185E00F9007208763DFA007308773DFB007B08AD
:10186E00F3007A08F2007908F1007808F000080019
:10187E007E01CE134E1340019417141355307D0183
:10188E008F00AA308F000F1011307E01A600173086
:10189E007D01CD0055308F00AA308F000F14080047
:1018AE007108F4007008F300602C0130F00700306E
:1018BE00F13D70088400710885001200031D682C2C
:1018CE00692C5C2C73087002F0007408713BF100F7
:1018DE0008007408803AF50080307502031D792CDB
:1018EE000130730203187C2C7D2C892C7309F500B2
:1018FE007409F600F50A0319F60A7508F30076085E
:10190E00F400892C0800F800F401F5017008F200CB
:10191E00F3017208F6007308F700781C972C982CC8
:10192E009C2C7608F4077708F53D0130F635F70D57
:10193E00890B9D2C0310F80C7808031DA72CA82CDE
:10194E00942C7508F1007408F0000800400123087B
:10195E00F3002208F2002108F1002008F000270809
:10196E00F7002608F6002508F5002408F4008D314E
:10197E002C258C3170084001A0007108A10072085E
:10198E00A2007308A3000030A31BFF30A400A50023
:10199E00A600A70008004001A300A101A201EA2CA5
:1019AE002008FA00FB017A08F1007B08F2007908A2
:1019BE00FC007C08F3008D315F258C310130400135
:1019CE00A1070030A23D21082307FA007A088600FD
:1019DE00013087000108FB007B08A0002008031DD2
:1019EE00F92CFA2CD72C08004001E5006108E7001D
:1019FE006008E6004101CC01CD01192D6630E300EF
:101A0E006308CE006208E4006408CF0065088131E7
:101A1E0026218C3140014E084101CC0740014F0870
:101A2E004101CD3D40016608840067088500120023
:101A3E00031D222D232D052D41014D084001E100EE
:101A4E0041014C084001E00008000030FB0000306E
:101A5E00FA000030F9000030F800701C372D382DD8
:101A6E00402D7408F8077508F93D7608FA3D770899
:101A7E00FB3D0130F435F50DF60DF70D890B412DBB
:101A8E000130F336F20CF10CF00C890B482D730873
:101A9E00720471047004031D552D562D342D7B08D0
:101AAE00F3007A08F2007908F1007808F0000800D7
:101ABE0073080319632D642D692D7308031D682D9A
:101ACE00692D6E2D71088B31DA238D319D2D7308A2
:101ADE00033E86008701160001040319772D782D29
:101AEE00952D7308033E86008701403FF400413F69
:101AFE00F500730A86008701403FF600413FF7006C
:101B0E007708803AF8007508803A7802031D912D07
:101B1E00740876020318942D952D9D2D730A860058
:101B2E0087010130810741310318810A0800803195
:101B3E0005208D318C313F248D318C3104248D3133
:101B4E00FB304001E8009030E9008B31F2238D31FB
:101B5E0018304001E8009130E900C330EA009030BF
:101B6E00EB008B31F2238D310A304001E8009130C9
:101B7E00E9000030EA009030EB008B31F2238D311A
:101B8E00EA304001E8009030E9002630EA0091305A
:101B9E00EB008B31F2238D31D7304001E8009030CD
:101BAE00E9003230EA009130EB008B31F2238D31B7
:101BBE008B31CC238D3108004001AB004101521C0A
:101BCE00E92DEA2DF32D40012B08FD007D08F900CB
:101BDE0024088C31D2248D314001A61BF72DF82D0F
:101BEE00FD2D2608AA002508A900FF2DA901AA018E
:101BFE00A701A801132E2030F1000030F2004001A1
:101C0E002B08FD007D08F3008D315F258D310130ED
:101C1E004001A7070030A83D2808803AFD002A0899
:101C2E00803A7D02031D1D2E29082702031C202E3B
:101C3E00212E022E41015218252E262E2F2E400126
:101C4E002B08FD007D08F90024088C31D2248D313B
:101C5E0040012408F0000130F1008C3157248D3101
:101C6E00400129087007A4002A08713DA50008004C
:101C7E004001AD00E5308600003087002030840042
:101C8E00003085000730FB0016001A00FB0B4B2EB0
:101C9E007A08AC007908AB002B082C04031D582ED3
:101CAE00592E5D2E2030AB000030AC002C08F10018
:101CBE002B08F0008C3157248E3171084001B10091
:101CCE007008B000410151084001AF0041015008B9
:101CDE004001AE00AF1B742E752E892E2F08803A50
:101CEE00FB003108803A7B02031D7F2E30082E0246
:101CFE00031C822E832E842E892E40012F08B100C4
:101D0E002E08B00040013108AF003008AE0041018E
:101D1E004F084001AA0041014E084001A9004101AF
:101D2E0052189A2E9B2EBC2EAD2E2030F100003074
:101D3E00F20040012D08FB007B08F3008D315F257A
:101D4E008E3101304001B0070030B13D4001310805
:101D5E00803AFB002A08803A7B02031DB82E290820
:101D6E003002031CBB2EBC2E9C2E4001A701A801E5
:101D7E00DC2E40012B0884002C0885000008FB0097
:101D8E00FC017B08F1007C08F2002D08FD007D08A7
:101D9E00F3008D315F258E3101304001AB070030ED
:101DAE00AC3D0130A7070030A83D2808803AFB0063
:101DBE002F08803A7B02031DE62E2E082702031CF5
:101DCE00E92EEA2EC02E4101521CEE2EEF2E102FC0
:101DDE00012F2030F1000030F20040012D08FB00F1
:101DEE007B08F3008D315F258E3101304001B00745
:101DFE000030B13D40013108803AFB002A08803A9C
:101E0E007B02031D0C2F29083002031C0F2F102FED
:101E1E00F02E40013108FA003008F9000800F201F6
:101E2E002830860000308700473FF000F01F202F3B
:101E3E00212F422F4001A809A909AA09AB09AC0913
:101E4E00AD09AE09AF09A80A031D402FA90A031D4B
:101E5E00402FAA0A031D402FAB0A031D402FAC0AC8
:101E6E00031D402FAD0A031D402FAE0A031D402F48
:101E7E00AF0AF201F20A2030860000308700473F99
:101E8E00F000F01F4B2F4C2F6B2F4001A009A10922
:101E9E00A209A309A409A509A609A709A00A031D59
:101EAE006B2FA10A031D6B2FA20A031D6B2FA30A12
:101EBE00031D6B2FA40A031D6B2FA50A031D6B2F89
:101ECE00A60A031D6B2FA70A400120082104220435
:101EDE00230424042504260427040319772F782FBE
:101EEE00CB2FF101F10A872FA035A10DA20DA30D65
:101EFE00A40DA50DA60DA70D0130F0007008F10779
:101F0E00A71F8A2F8B2F7B2F27082F02031DA92F88
:101F1E0026082E02031DA92F25082D02031DA92F09
:101F2E0024082C02031DA92F23082B02031DA92F01
:101F3E0022082A02031DA92F21082902031DA92FF9
:101F4E0020082802031CAC2FAD2FBD2F2008A8029D
:101F5E002108A93B2208AA3B2308AB3B2408AC3B33
:101F6E002508AD3B2608AE3B2708AF3BA736A60C8F
:101F7E00A50CA40CA30CA20CA10CA00C0130F10218
:101F8E00031DCA2FCB2F8B2F72080319CF2FD02FE3
:101F9E00EE2FA809A909AA09AB09AC09AD09AE092A
:101FAE00AF09A80A031DEE2FA90A031DEE2FAA0AD8
:101FBE00031DEE2FAB0A031DEE2FAC0A031DEE2FF1
:101FCE00AD0A031DEE2FAE0A031DEE2FAF0A400120
:101FDE002808A0002908A1002A08A2002B08A300A7
:101FEE002C08A4002D08A5002E08A6002F08A70077
:101FFE000800303430342E3430343134003443342D
:10200E006F346E34663469346734753472346134C7
:10201E00743469346F346E343A3420345034493465
:10202E004334313436344C3446343134353433342D
:10203E003534363420346F346E34203461342034E9
:10204E004234723465346134643462346F346134D2
:10205E0072346434203440342034383420344D34D7
:10206E004934503473340D340A34003466346C34CD
:10207E006F3461347434363434346D3475346C34B6
:10208E003A34203425346434203463347934633460
:10209E006C34653473340D340A340D340A34003420
:1020AE0066346C346F3461347434333432346D349A
:1020BE0075346C343A34203425346434203463342B
:1020CE00793463346C34653473340D340A3400342B
:1020DE006D3475346C343834283429343A34203421
:1020EE0020342534643420346334793463346C34CE
:1020FE00653473340D340A340034733475346D34EE
:10210E003834283429343A34203420342534643495
:10211E0020346334793463346C34653473340D3461
:10212E000A3400346D3475346C343334323428341C
:10213E0029343A34203425346434203463347934E9
:10214E0063346C34653473340D340A3400347334B0
:10215E0075346D3433343234283429343A342034DF
:10216E002534643420346334793463346C34653408
:10217E0073340D340A3400346334703475342D34B2
:10218E00613472346934743468342D346234653495
:10219E006E34633468346D34613472346B340034AD
:1021AE004234753469346C34643420347434693494
:1021BE006D3465343A342034253473340D340A3496
:1021CE000D340A3400344234753469346C3464345A
:1021DE00203464346134743465343A342034253414
:1021EE0073340D340A34003443346F346F346C342A
:1021FE002D344D34433455342E3463346F346D34B2
:10220E000D340A3400345634653472347334693400
:10221E006F346E343A342034253473340D340A342A
:10222E000034503472346F346A3465346334743429
:10223E003A342034253473340D340A340034533494
:10224E006534703420342034373420343234303412
:10225E00323430340034313437343A343234373463
:08226E003A34313435340034F8
:020000040001F9
:0A000E00AA3EFF379F3FFF3FFF3F70
:00000001FF
