:020000040000FA
:08000000803102288731FD2F39
:10082600F100710870070800F9007908F000F1017D
:10083600F01BF1037608F200F301F21BF303843197
:100846003F2484317108F7007008F600080070082C
:100856007407F8007108753DF9007208763DFA00D4
:100866007308773DFB007B08F3007A08F2007908ED
:10087600F1007808F0000800F401F501701C442C22
:10088600452C492C7208F4077308F53D0130F23502
:10089600F30D890B4A2C0130F136F00C890B4F2CE5
:1008A60070087104031D582C592C412C7508F10051
:1008B6007408F0000800F800F401F5017008F20071
:1008C600F3017208F6007308F700781C6B2C6C2C89
:1008D600702C7608F4077708F53D0130F635F70DEC
:1008E600890B712C0310F80C7808031D7B2C7C2CCB
:1008F600682C7508F1007408F000080040015408DF
:10090600F3005308F2005208F1005108F0005808AD
:10091600F7005708F6005608F5005508F40084312C
:10092600A624843170084001D1007108D2007208F3
:10093600D3007308D4000030D41BFF30D500D60096
:10094600D700D80008000030FB000030FA00003065
:10095600F9000030F800701CB12CB22CBA2C7408C7
:10096600F8077508F93D7608FA3D7708FB3D013032
:10097600F435F50DF60DF70D890BBB2C0130F3366A
:10098600F20CF10CF00C890BC22C73087204710482
:100996007004031DCF2CD02CAE2C7B08F3007A08F4
:1009A600F2007908F1007808F000080002304001F2
:1009B600E6006608D0000330E6006608CF00033084
:1009C600E6006608F00002308431132484314001C9
:1009D600E7006708CE000330E6006608F60002303E
:1009E60084311724843177084001CD007608CC0085
:1009F6000030CB000030CA000030C9000430C80007
:100A06000030C7000030C6000030C5000530C40005
:100A16000030F3000030F2000030F1000430F00046
:100A26000030F7000030F6000030F5000530F40025
:100A360084312A24843173084001C3007208C2003D
:100A46007108C1007008C0000030D4000030D30027
:100A56000030D2000430D1000030D8000030D7007A
:100A66000030D6000530D500843181248431400120
:100A76005108A0005208A1005308A2005408A30080
:100A86005508A4005608A5005708A6005808A70050
:100A96004030BF00C030BE000030BD000030BC009A
:100AA600C030BB00E430BA000030B9000030B800F6
:100AB6003B08D4003A08D3003908D2003808D100E0
:100AC6003F08D8003E08D7003D08D6003C08D500B0
:100AD6008531A625843140015408B7005308B60075
:100AE6005208B5005108B4004030B300C030B2001F
:100AF6000030B1000030B000C030AF00E430AE00CE
:100B06000030AD000030AC002F08D4002E08D30012
:100B16002D08D2002C08D1003308D8003208D7009F
:100B26003108D6003008D5008531A625843140012C
:100B36005408AB005308AA005208A9005108A8009F
:100B4600A32D80310228400154088039F900790824
:100B5600D9005435F9007908DF00D31FB32DB42D21
:100B6600B52D5F145F080319B92DBA2DC92D5F0A7B
:100B7600031DBE2DBF2DC72D0030D4000030D3007D
:100B86000030D2000030D100D317D12D0030D40070
:100B96000030D3000030D2000030D1005808803930
:100BA600F9007908D9065835F9007908DE00D71F0B
:100BB600DD2DDE2DDF2D5E145E080319E32DE42DF9
:100BC600F32D5E0A031DE82DE92DF12D0030D80026
:100BD6000030D7000030D6000030D500D717FB2DE7
:100BE6000030D8000030D7000030D6000030D500E5
:100BF6005E080319FF2D002E052E5F08031D042E27
:100C0600052E0E2E0030D4000030D3000030D20066
:100C16000030D100FC2F5108F9007908F000570880
:100C260084315E24853171084001E5007008E400D6
:100C36006408F900FA01FB01FC017C08DD007B0871
:100C4600DC007A08DB007908DA006508F900FA01A9
:100C5600FB01FC017C08E3007B08E2007A08E10066
:100C66007908E0005208F9007908F0005608843146
:100C76005E24853171084001E5007008E4006408CF
:100C8600F900FA01FB01FC017908DA077A08DB3D75
:100C96007B08DC3D7C08DD3D6508F900FA01FB01B7
:100CA600FC017908E0077A08E13D7B08E23D7C0813
:100CB600E33D5308F9007908F000550884315E24B5
:100CC600853171084001E5007008E4006408F90008
:100CD600FA01FB01FC017908DA077A08DB3D7B089B
:100CE600DC3D7C08DD3D6508F900FA01FB01FC01ED
:100CF6007908E0077A08E13D7B08E23D7C08E33DA0
:100D06000830DA35DB0DDC0DDD0D890B842E52083B
:100D1600F9007908F000550884315E2485317108A0
:100D26004001E5007008E4006408DA076508DB3D69
:100D36000030DC3DDD3D5108F9007908F000560829
:100D460084315E24853171084001E5007008E400B5
:100D56006408DA076508DB3D0030DC3DDD3D083020
:100D6600DA35DB0DDC0DDD0D890BB32E5108F900EC
:100D76007908F000550884315E24853171084001F8
:100D8600E5007008E4006408DA076508DB3D00301A
:100D9600DC3DDD3D5208F9007908F0005708843142
:100DA6005E24853171084001E5007008E40064089E
:100DB600E0076508E13D0030E23DE33D5308F900F8
:100DC6007908F000560884315E24853171084001A7
:100DD600E5007008E4006408E0076508E13D0030BE
:100DE600E23DE33D5308F9007908F00057088431E5
:100DF6005E24853171084001E5007008E40064084E
:100E0600F9006508FA00FB01FC010830F935FA0D16
:100E1600FB0DFC0D890B092F7908E0077A08E13DE7
:100E26007B08E23D7C08E33D5A08F9005B08FA00BE
:100E36005C08FB005D08FC001830FC36FB0CFA0C65
:100E4600F90C890B202F7908E0077A08E13D7B0829
:100E5600E23D7C08E33D0830DA35DB0DDC0DDD0DC7
:100E6600890B2F2F5F085E07F900FA01FA0D790842
:100E7600823EE400FF307A3DE500582F0130E03530
:100E8600E10DE20DE30D890B422FDD1F4B2F4C2F99
:100E96004D2F60140130DA35DB0DDC0DDD0D890BCD
:100EA6004E2FFF30E407FF30E53DE21F5B2F5C2F3E
:100EB600412FDE01DD1F602F612F7D2FFF305A0588
:100EC600F900FF305B05FA00FF305C05FB007F3060
:100ED6005D05FC007C087B047A0479040319742FF1
:100EE600752F782FDE01DE0A7D2F601C7B2F7C2F6D
:100EF6007D2F752F5E080319812F822FAA2F0130AF
:100F0600E0070030E13D0030E23D0030E33D631C88
:100F16008D2F8E2FAA2F6008F9006108FA0062084B
:100F2600FB006308FC000130FD00FC37FB0CFA0CEB
:100F3600F90CFD0B982F7C08E3007B08E2007A0889
:100F4600E1007908E0000130E4070030E53D65087E
:100F5600803AF90080307902031DB32FFF30640216
:100F6600031CB62FB72FC12F7F304001E30080301E
:100F7600E2000030E1000030E000F02F400165089B
:100F8600803AF90080307902031DCB2F01306402CC
:100F96000318CE2FCF2FDA2F00304001E3000030A8
:100FA600E2000030E1000030E000D901F02F4001FE
:100FB6006408F9007908DF00FF30E005FF30E1053D
:100FC6007F30E2050030E3055F1CEA2FEB2FEC2FA4
:100FD600E2175F36F9007908E3005908F900790845
:100FE600E3046308D4006208D3006108D2006008F5
:0A0FF600D100080040018431D92C1D
:00000001FF
