:020000040000FA
:04000000803119280A
:100008007E14803140011C0EF000700C0139F000A4
:100018000130F006F00EF00D1C087006DF3970068E
:100028009C004E0190107E10090080311B2864301E
:100038008400833085005630860000308700073002
:1000480083316B2380314E308400003085000830C6
:10005800833171238031A030840000308500203046
:100068008331712380317E1040018331772B400129
:10007800B0005630860000308700233084000030FE
:1000880085000730A00016001A00A00B47287B083F
:10009800AF007A08AE002E082F04031D54285528F7
:1000A80059282330AE000030AF002F08F2002E0888
:1000B800F1008231BA22803172084001B40071081F
:1000C800B3005308B2005208B100B21B6C286D2867
:1000D80081283208803AA0003408803A2002031DA3
:1000E800772833083102031C7A287B287C2881284A
:1000F80040013208B4003108B30040013408B200AE
:100108003308B1005108AD005008AC0054188D28D0
:100118008E28AE28A0282030F2000030F3004001DD
:100128003008A0002008F40082310222803101301A
:100138004001B3070030B43D3408803AA0002D08D0
:10014800803A2002031DAA282C083302031CAD287C
:10015800AE288F284001AA01AB01CE2840012E0805
:1001680084002F0885000008A000A1012008F200E3
:100178002108F3003008A2002208F400823102228C
:10018800803101304001AE070030AF3D0130AA0791
:100198000030AB3D2B08803AA0003208803A20029C
:1001A800031DD82831082A02031CDB28DC28B228C2
:1001B8004001541CE028E1280129F3282030F200EE
:1001C8000030F30040013008A0002008F40082311C
:1001D8000222803101304001B3070030B43D3408B9
:1001E800803AA0002D08803A2002031DFD282C0823
:1001F8003302031C00290129E22840013408FB00CE
:100208003308FA0008004001BE003508860087015F
:10021800403FB700413FB8003708840038088500E0
:100228001200253A031D19291A2992293508860032
:1002380087010130810741310318810AD001D101BA
:10024800D401D501FF30D200FF30D3003508860035
:100258008701403FB700413FB8003708840038089D
:1002680085001200733A031D3A293B295D29350898
:10027800860087010130810741310318810A360859
:100288008600870101088400850102308107003F4C
:10029800BC00013FBD003D08FB003C08FA003E08D9
:1002A80080313B2081317B084001B6007A08B500D7
:1002B800B529350886008701403FB700413FB8009F
:1002C80037088400380885001200253A031D6D2977
:1002D8006E29872935088600870101308107413159
:1002E8000318810A2530F2000030F3003E08B700F9
:1002F8003708F40082310222813101304001B50013
:100308000030B600B529350886008701013081071D
:1003180041310318810AB501B601B52935088600AF
:100328008701403FB700413FB800370884003808CC
:1003380085000008B900BA013908F2003A08F3004C
:100348003E08BB003B08F4008231022281314001A3
:100358003508860087010130810741310318810A79
:100368008129080083317D238131823169228131DD
:100378008231D32281311B304001C7008330C8004D
:100388008231F822813138304001C7008330C800FB
:10039800E630C9008230CA008231F82281312A3021
:1003A8004001C7008330C800A130C9008230CA00AC
:1003B8008231F82281310A304001C7008330C800F9
:1003C8004630C9008330CA008231F8228131A73013
:1003D8004001C7008230C8005230C9008330CA00CB
:1003E8008231F82281318231852281317E01E41205
:1003F800400196129C120B178B17080074080319FA
:10040800062A072A0C2A7408031D0B2A0C2A112A0B
:10041800720883315B238231402A7408033E8600C8
:1004280087011600010403191A2A1B2A382A74089E
:10043800033E86008701403FF500413FF600740AFD
:1004480086008701403FF700413FF8007808803A6E
:10045800F9007608803A7902031D342A7508770274
:100468000318372A382A402A740A8600870101307F
:10047800810741310318810A08004001C40040087F
:10048800C6003F08C500CE01CF015B2A4530C20037
:100498004208B5004108C3004308B600440881314A
:1004A8000721823140013508CE073608CF3D45087F
:1004B8008400460885001200031D632A642A4A2A1C
:1004C8004F08C0004E08BF000800400194131417DD
:1004D8007E016413400116131C1355307D018F00F3
:1004E800AA308F000F100D307E01A7000930B6002A
:1004F80016307D01CB0055308F00AA308F000F14C5
:10050800080045018E138C011008F039013890005D
:100518000E088F3950388E00FA308D0046018E1340
:100528000F308E0401308D00F4308C008E174E0190
:1005380090109A1445018E170800303430342E3448
:100548003034313400344234753469346C346434B2
:100558002034743469346D3465343A3420342534A5
:1005680073340D340A340D340A3400347208F5003B
:100578007108F400C32A0130F1070030F23D710818
:100588008400720885001200031DCB2ACC2ABF2ADA
:1005980074087102F1007508723BF200080042010C
:1005A8009D139E124E010F1219128F1299124201B9
:1005B8001E121E151D169F159C0144309B009D1789
:1005C8009E1608006D34633475342D3469347234E2
:1005D80071342D34623465346E34633468346D3468
:1005E800613472346B3400344930FC007C084001BB
:1005F800CD004808C0004708BF004D30FC007C080B
:10060800C100003082314122823108004234753401
:1006180069346C346434203464346134743465343B
:100628003A342034253473340D340A3400344334D6
:100638006F346F346C342D344D34433455342E3488
:1006480063346F346D340D340A34003456346534F1
:100658007234733469346F346E343A342034253448
:1006680073340D340A340034503472346F346A34BD
:100678006534633474343A342034253473340D3497
:100688000A34003453346534703420343134383407
:100698002034323430343234303400343134343469
:1006A8003A34313438343A34313434340034F100A3
:1006B80042019E1C602B612B5C2B71089A0008007C
:1006C80028346E3475346C346C3429340034FE00AC
:1006D80012001E00FE0B6C2B0034640080010131F7
:1006E800890B722B00348131B62183317A2B80310A
:0406F80019280800B5
:020000040001F9
:0A000E00883AFF379F3FFF3FFF3F96
:00000001FF
